:030000000203896F
:10000300C00078B10000D8FCD00022C000C0017944
:100013002D78A6D8FED9FADAF6D001D00022D294F0
:10002300120003C29422A2E792B5A2E692B4A2E51B
:1000330092B3A2E492B2120021120003A2E392B59A
:10004300A2E292B4A2E192B3A2E092B21200212200
:10005300D292020029C292020029C294C29374333D
:100063001200587433120058743212005874281254
:100073000058740C1200587401120058C0027A021E
:1000830012000ED00222E4936006120053A380F6FE
:100093002244404480020058C0E0E8C4540F443076
:0E00A300120053E8540F4430120053D0E022F4
:1000B100C0E0C0D0C000C001C002E4F53CF53DF590
:1000C1003EF53FF5407A20E537A2E779047834E63A
:1000D10033F608D9FA7905783CE636D4F608D9F929
:1000E100DAE5D002D001D000D0D0D0E022C0E0C00B
:1000F100D0C000C001C002E4F53CF53DF53EF53F3E
:10010100F5407A20E537A2E779047834E633F6083A
:10011100D9FA7905783CC0D0E6243320E70224D00F
:1001210020E30224FDD0D033F608D9EADAD6D00292
:10013100D001D000D0D0D0E022C0E0C0D0C000C0FB
:1001410001C0027A207905C37840E613C0D030E7B8
:100151000224D030E30224FDF618D0D0D9EC790482
:100161007837E613F618D9FADADBD002D001D000DD
:10017100D0D0D0E022C0E0C0D0E5342538F534E558
:10018100353539F535E536353AF536E537353BF56B
:1001910037D0D0D0E022C0E0C0D0C3E5349538F5E7
:1001A10034E5359539F535E536953AF536E5379542
:1001B1003BF537D0D0D0E022C0E0C0D0C3E53495C4
:1001C10038E5359539E536953AE537953B9200D0D6
:1001D100D0D0E022C0E0C0D0C3E5389534E53995F0
:1001E10035E53A9536E53B95379200D0D0D0E022FF
:1001F100C0E0C0D0C200C3E53895347014E539952C
:1002010035700EE53A95367008E53B95377002D2A8
:1002110000D0D0D0E0221201F12000030201D5224A
:100221001201F12000030201B922C0E0C0F0C0D0E8
:10023100C000C001C002C003E5348538F0A4F8A9AC
:10024100F0E5358538F0A429F9E435F0FAE534858F
:1002510039F0A429F9E5F03AFAE433FBE5368538BB
:10026100F0A42AFAE5F03BFBE5358539F0A42AFA3A
:10027100E5F03BFBE534853AF0A42AFAE5F03BFBD7
:10028100E5378538F0A42BFBE5368539F0A42BFB47
:10029100E535853AF0A42BFBE534853BF0A42BFB37
:1002A1008B378A3689358834D003D002D001D0000B
:1002B100D0D0D0F0D0E022C0E0C0D0C000C001C09A
:1002C10002C003C0047C20E4F8F9FAFBC3E534332F
:1002D100F534E53533F535E53633F536E53733F5C0
:1002E10037E833F8E933F9EA33FAEB33FBC3E8953E
:1002F10038E99539EA953AEB953B4013E89538F89A
:10030100E99539F9EA953AFAEB953BFB433401DC7F
:10031100BBD004D003D002D001D000D0D0D0E02295
:10032100C0E0E8C4540F4430120376E8540F44305F
:10033100120376D0E022D2A2C2A3D2A022C0E079D9
:10034100007A08E833F892A1D2A3A2A2E933F9C254
:10035100A3DAF0D0E02279DE78A6D8FED9FAC28EEF
:1003610053890F438920438780758DF4758BF4D2AF
:100371008E759852223099FDC299F59922E49360C5
:1003810006120376A380F62275817F75C100D2AF74
:1003910012033712035712005DC2A0780112033E07
:1003A100788012033EE95403F533785512033E89F0
:1003B10032D2A01203E8C2A0780112033E78901253
:1003C100033EE95403F533785512033E8932D2A036
:1003D10012043DC0027AFA12000ED002C0027AFA6B
:1003E10012000ED00280B2753700753600853335A4
:1003F10085323475384075394B753A4C753B00126E
:10040100022B7538FF753903753A00753B001202EE
:10041100B87538107539A8753A29753B00120197DE
:10042100753864753900753A00753B001202B8855C
:100431003744853643853542853441227537007509
:10044100360085333585323475384075394B753A08
:100451004C753B0012022B7538FF753903753A0054
:10046100753B001202B8753864753900753A00752C
:100471003B0012022B7538C6753901753A00753B80
:10048100001202B8753829753900753A00753B00BC
:100491001202B885443B85433A8542398541381279
:1004A10001761200B1E53EB400028028C0E074017B
:1004B10014120096D0E0C000A83E12009BD000C0EC
:1004C100E0740114120096D0E0C0E07420120053D1
:1004D100D0E0801CC0E0740114120096D0E0C0E0AE
:1004E1007420120053D0E0C0E07420120053D0E019
:1004F100C0E0740314120096D0E0C000A83D1200C1
:100501009BD000C0E0742E120053D0E0C000A83C84
:0605110012009BD0002245
:00000001FF
