:0300000002016C8E
:0100030032CA
:03000B000200EF01
:0100130032BA
:01001B0032B2
:0100230032AA
:03002B00020116B9
:10002E00C00078B10000D8FCD00022C000C0017919
:10003E002D78A6D8FED9FADAF6D001D00022D294C5
:10004E0012002EC29422A2E792B5A2E692B4A2E5C5
:10005E0092B3A2E492B212004C12002EA2E392B519
:10006E00A2E292B4A2E192B3A2E092B212004C22AA
:10007E00D292020054C292020054C294C2937433BC
:10008E0012008374331200837432120083742812A8
:10009E000083740C1200837401120083C0027A0272
:1000AE00120039D00222E493600612007EA380F67D
:1000BE002244404480020083C0E0E8C4540F443020
:1000CE0012007EE8540F443012007ED0E022E58903
:1000DE0054F04401F589758CEA758AE8D2A9C28C70
:1000EE0022C28C758CEA758AE8D28CB2B63275C88B
:1000FE000075CBA975CA9AE4F53075310575320FC6
:10010E0075330CD2ADD2CA22C2CFC0E0C0D00530FA
:10011E00E530B46444E4F5302000082001172002D5
:10012E00268036D28C1531E531B4002DC28CC2003A
:10013E007531058024D28C1532E532B4001BC28C89
:10014E00C20175320F8012B28C1533E533B400093B
:10015E00C28CC20275330C8000D0D0D0E0327581D3
:10016E007F75C1001200DC1200FCD2AF12017F803D
:10017E00FB208015C0027A32120039D0022080098D
:10018E003080FDD200C201C202208215C0027A3236
:10019E00120039D0022082093082FDD201C200C283
:1001AE0002208415C0027A32120039D0022084094E
:0A01BE003084FDD202C201C200220B
:00000001FF
