:030000000208F201
:0100030032CA
:03000B0002064D9D
:0100130032BA
:01001B0032B2
:0100230032AA
:03002B0002068C3E
:10002E00C00078B10000D8FCD00022C000C0017919
:10003E002D78A6D8FED9FADAF6D001D00022D294C5
:10004E0012002EC29422A2E792B5A2E692B4A2E5C5
:10005E0092B3A2E492B212004C12002EA2E392B519
:10006E00A2E292B4A2E192B3A2E092B212004C22AA
:10007E00D292020054C292020054C294C2937433BC
:10008E0012008374331200837432120083742812A8
:10009E000083740C1200837401120083C0027A0272
:1000AE00120039D00222E493600612007EA380F67D
:1000BE002244404480020083C0E0E8C4540F443020
:0E00CE0012007EE8540F443012007ED0E02273
:1000DC00C0E0C0D0C000C001C002E4F549F54AF54B
:1000EC004BF54CF54D7A20E542A2E77904783FE6D2
:1000FC0033F608D9FA79057849E636D4F608D9F9F1
:10010C00DAE5D002D001D000D0D0D0E022C0E0C0DF
:10011C00D0C000C001C002E4F549F54AF54BF54CDE
:10012C00F54D7A20E542A2E77904783FE633F608EC
:10013C00D9FA79057849C0D0E6243320E70224D0D7
:10014C0020E30224FDD0D033F608D9EADAD6D00267
:10015C00D001D000D0D0D0E022C0E0C0D0C000C0D0
:10016C0001C0027A207905C3784DE613C0D030E780
:10017C000224D030E30224FDF618D0D0D9EC790457
:10018C007842E613F618D9FADADBD002D001D000A7
:10019C00D0D0D0E022C0E0C0D0E53F2543F53FE50C
:1001AC00403544F540E5413545F541E5423546F5E8
:1001BC0042D0D0D0E022C0E0C0D0C3E53F9543F59B
:1001CC003FE5409544F540E5419545F541E54295BF
:1001DC0046F542D0D0D0E022C0E0C0D0C3E53F9578
:1001EC0043E5409544E5419545E54295469200D05E
:1001FC00D0D0E022C0E0C0D0C3E543953FE54495A4
:10020C0040E5459541E54695429200D0D0D0E0229C
:10021C00C0E0C0D0C200C3E543953F7014E54495DF
:10022C0040700EE54595417008E54695427002D246
:10023C0000D0D0D0E02212021C20000302020022C7
:10024C0012021C2000030201E422C0E0C0F0C0D066
:10025C00C000C001C002C003E53F8543F0A4F8A96B
:10026C00F0E5408543F0A429F9E435F0FAE53F8543
:10027C0044F0A429F9E5F03AFAE433FBE54185436F
:10028C00F0A42AFAE5F03BFBE5408544F0A42AFAF9
:10029C00E5F03BFBE53F8545F0A42AFAE5F03BFB96
:1002AC00E5428543F0A42BFBE5418544F0A42BFBF0
:1002BC00E5408545F0A42BFBE53F8546F0A42BFBE0
:1002CC008B428A418940883FD003D002D001D000B4
:1002DC00D0D0D0F0D0E022C0E0C0D0C000C001C06F
:1002EC0002C003C0047C20E4F8F9FAFBC3E53F33F9
:1002FC00F53FE54033F540E54133F541E54233F553
:10030C0042E833F8E933F9EA33FAEB33FBC3E89507
:10031C0043E99544EA9545EB95464013E89543F837
:10032C00E99544F9EA9545FAEB9546FB433F01DC28
:10033C00BBD004D003D002D001D000D0D0D0E0226A
:10034C00D2A2C2A322C0E079007A08E833F892A1C5
:10035C00D2A3A2A2E933F9C2A3DAF0D0E022C2A060
:10036C007801120351E5F0C454F0D2E7F8120351AE
:10037C00E95403F54878551203518947D2A02275E8
:10038C003F007540007541007542007D6412036AA0
:10039C008547438548447545007546001201A1DD2B
:1003AC00EC7543647544007545007546001202E314
:0103BC00221E
:1003BD0079DE78A6D8FED9FAC28E53890F438920EB
:1003CD00438780758DF4758BF4D28E7598522230DB
:1003DD0099FDC299F59922E49360061203DCA3807E
:1003ED00F622C0E0E8C4540F44301203DCE8540F89
:1003FD0044301203DCD0E022C000A84A1203EFD033
:0B040D0000C000A8491203EFD000223D
:10041800205265666C6F7720436F6E74726F6C2024
:10042800005374617274202F2053657474696E6769
:100438007300536F616B2054696D65202020202064
:10044800202000536F616B2054656D706572617474
:10045800757265005265666C6F772054696D65200A
:1004680020202020005265666C6F772054656D70DF
:1004780020202020200053746172742050726F6312
:100488006573733F20200020202D204E6F207C2094
:100498002B2059657320200020436F6F6C696E67AD
:1004A8002E2E2E20202020200020506C65617365A0
:1004B8002057616974202020200050574D2049534F
:1004C800204F4E202020202020200050574D20492A
:1004D80053204F4646202020202020002020204462
:1004E8006174612053617665642020200050726F2A
:1004F800636573732053746F7070656420002020E7
:100508002020202020202020202020202020002DF6
:1005180020526573656C6563742056616C730900BD
:100528002B095374617274205265666C6F770052A0
:10053800616D7020746F205265666C6F77202000A3
:1005480052616D7020746F20536F616B20202020E2
:100558000050726568656174202F20536F616B20AD
:1005680020005265666C6F772020202020202020F4
:10057800202000436F6F6C696E67202020202020A8
:10058800202020005265666C6F7720436F6D706C79
:100598006574652100436865636B20542D436F754E
:1005A800706C6521200050726F636573732041621F
:1005B8006F7274656421002D20436F6E74696E75C7
:1005C800653F202020202000495420574F524B538C
:1005D8003F212121212121210054656D703A0054C9
:1005E800696D653A000A0020DF430020730050431C
:1005F80042204275726E205761726E696E670020E4
:100608002041626F7274696E67212E2E2E202000A1
:10061800546F6F204C6F6E672120202020202020EF
:1006280000546F6F2048696768212020202020200F
:100638002000E58954F04401F589758CEA758AE84B
:10064800D2A9C28C22C28C758CEA758AE8D28CB287
:10065800903275C80075CBA975CA9AE4F530F531A2
:10066800F533F532F534F535F536F537F55AF53A0B
:10067800F539F538F53B753C04753D0A753E0CD2E5
:10068800ADD2CA22C2CFC0E0C0D0053B053205308A
:10069800E53070020531E53BB46442E4F53B2006E1
:1006A800082007172008268034D28C153CE53CB476
:1006B800002BC28CC206753C048022D28C153DE505
:1006C8003DB40019C28CC207753D0A8010B28C1562
:1006D8003EE53EB40007C28CC208753E0CE530B456
:1006E800E824E531B4031FB20975300075310005FF
:1006F8003AE53AB43C02D2010539E539B43C07E49D
:10070800F53905388000E532B4FA05D205E4F5324A
:1007180030021F053330030EE533B41915C203C286
:10072800B7E4F533800CE533B4E607D203D2B7E477
:10073800F533D0D0D0E032C20575F00712038B1222
:10074800075D75F00012038B12079475F001120310
:100758008B1207DD22854743854844754500754659
:1007680000753F3175403B7541037542001202E345
:100778007543107544277545007546001202568565
:100788003F528540538541548542552285524385C1
:1007980053448554458555461202567543FF7544A2
:1007A800037545007546001202E37543107544A8A9
:1007B8007545297546001201C27543647544007574
:1007C80045007546001202E3853F4E85404F85413E
:1007D8005085425122855243855344855445855559
:1007E800461202567543FF75440375450075460069
:1007F8001202E3754364754400754500754600129E
:1008080002567543C67544017545007546001202C7
:10081800E37543297544007545007546001202E3E7
:10082800854E43854F448550458551461201A17533
:1008380043647544007545007546001202E3853F20
:100848005B85405C85415D85425E1200DCC000A886
:100858004A1203EFD000C000A8491203EFD0007479
:100868000A1203DC855A3F75400075410075420045
:100878001200DCC000A8491203EFD000740A12036A
:10088800DC22C2AF75965890000074FFF075963858
:10089800E535F0A3E534F0A3E537F0A3E536F0A39A
:1008A8007455F0A374AAF075961874FFF075960045
:1008B800D2AF22759608900004E0B4551BA3E0B4AB
:1008C800AA16900000E0F535A3E0F534A3E0F5376B
:1008D800A3E0F5367596002275359675342D753773
:1008E800E175361E75960002092875817F75C1006D
:1008F80012063A12065AD2AF12034C1203BD120066
:1009080088C202C203C2B7C204C201C205C206C27B
:1009180007C208C209C2A4C2A5C2A6C2A71208BBC0
:1009280030050312073FE55AB4000280030209C1EB
:10093800C2A4C2A5C2A6C2A7C0E07401141200C115
:10094800D0E0C083C082C0E09004181200B4D0E0A8
:10095800D082D083C0E07401141200BFD0E0C083FD
:10096800C082C0E09004291200B4D0E0D082D083C5
:10097800208020C0027A32120039D0022080143040
:1009880080FD755A017401120083C0027A021200B8
:1009980039D002208220C0027A32120039D00220D7
:1009A80082143082FD755A057401120083C0027AE0
:1009B80002120039D002020928E55AB40102800364
:1009C800020AADD20420090AD2A4D2A5D2A6D2A77F
:1009D8008008C2A4C2A5C2A6C2A7C0E074011412AE
:1009E80000C1D0E0C083C082C0E090043A1200B4D5
:1009F800D0E0D082D083C0E07401141200BFD0E0F0
:100A080085343F7540007541007542001200DCC016
:100A180000C0E0742012007EA84AE8540F44301247
:100A2800007ED0E0D000C000A8491200C6D000C0A7
:100A3800E07405141200BFD0E0C083C082C0E0900B
:100A480005F31200B4D0E0D082D083208217C00210
:100A58007A32120039D00220820BC0027A64120066
:100A680039D0020534208417C0027A32120039D0F6
:100A78000220840BC0027A64120039D00215342097
:100A88008020C0027A32120039D0022080143080CF
:100A9800FD755A027401120083C0027A02120039ED
:100AA800D002020928E55AB402028003020B9720FB
:100AB800090AD2A4D2A5D2A6D2A78008C2A4C2A5E8
:100AC800C2A6C2A7C0E07401141200C1D0E0C0835E
:100AD800C082C0E090044B1200B4D0E0D082D08332
:100AE800C0E07401141200BFD0E085353F754000A6
:100AF8007541007542001200DCC000C0E07420128D
:100B0800007EA84AE8540F443012007ED0E0D0009E
:100B1800C000A8491200C6D000C0E0740514120035
:100B2800BFD0E0C083C082C0E09005EF1200B4D00F
:100B3800E0D082D083208217C0027A32120039D0E6
:100B48000220820BC0027A64120039D002053520D7
:100B58008417C0027A32120039D00220840BC002F6
:100B68007A64120039D0021535208020C0027A320A
:100B7800120039D0022080143080FD755A037401A8
:100B8800120083C0027A02120039D002020928E555
:100B98005AB403028003020C8C20090AD2A4D2A5FD
:100BA800D2A6D2A78008C2A4C2A5C2A6C2A7C0E086
:100BB8007401141200C1D0E0C083C082C0E0900468
:100BC8005C1200B4D0E0D082D083C0E0740114126B
:100BD80000BFD0E085363F75400075410075420082
:100BE8001200DCC000C0E0742012007EA84AE8545D
:100BF8000F443012007ED0E0D000C000A849120097
:100C0800C6D000C0E07405141200BFD0E0C083C095
:100C180082C0E09005F31200B4D0E0D082D08320E7
:100C28008217C0027A32120039D00220820BC00229
:100C38007A64120039D0020536208417C0027A324D
:100C4800120039D00220840BC0027A64120039D015
:100C5800021536E536C314942D400375362D2080D1
:100C680020C0027A32120039D0022080143080FD70
:100C7800755A047401120083C0027A02120039D036
:100C880002020928E55AB404028003020D812009F2
:100C98000AD2A4D2A5D2A6D2A78008C2A4C2A5C24D
:100CA800A6C2A7C0E07401141200C1D0E0C083C07E
:100CB80082C0E090046D1200B4D0E0D082D083C02E
:100CC800E07401141200BFD0E085373F754000750D
:100CD80041007542001200DCC000C0E07420120020
:100CE8007EA84AE8540F443012007ED0E0D000C0FD
:100CF80000A8491200C6D000C0E07405141200BF55
:100D0800D0E0C083C082C0E09005EF1200B4D0E00C
:100D1800D082D083208217C0027A32120039D002E2
:100D280020820BC0027A64120039D0020537208471
:100D380017C0027A32120039D00220840BC0027A1E
:100D480064120039D0021537E537C31494EB400319
:100D58007537EB208020C0027A32120039D0022089
:100D680080143080FD755A007401120083C0027A25
:100D780002120039D002020928E55AB4050280039C
:100D8800020EDED2A4D2A5D2A6D2A73004611208E0
:100D98008AC204C0E07401141200C1D0E0C083C04C
:100DA80082C0E09004E41200B4D0E0D082D083C0C6
:100DB800E07401141200BFD0E0C083C082C0E0908C
:100DC80005061200B4D0E0D082D083C0027AFA12AD
:100DD8000039D002C0027AFA120039D002C0027A71
:100DE800FA120039D002C0027AFA120039D002E5AC
:100DF8005BC39535405FC0E07401141200C1D0E0B8
:100E0800C083C082C0E09004A01200B4D0E0D082B9
:100E1800D083C0E07401141200BFD0E0C083C08248
:100E2800C0E09004B11200B4D0E0D082D083C002F8
:100E38007AFA120039D002C0027AFA120039D002C6
:100E4800C0027AFA120039D002C0027AFA120039C6
:100E5800D002020928C0E07401141200C1D0E0C019
:100E680083C082C0E090047E1200B4D0E0D082D06B
:100E780083C0E07401141200BFD0E0C083C082C0F8
:100E8800E090048F1200B4D0E0D082D08320842078
:100E9800C0027A32120039D0022084143084FD75E1
:100EA8005A007401120083C0027A02120039D0027B
:100EB800208220C0027A32120039D00220821430F7
:100EC80082FD755A067401120083C0027A0212006C
:100ED80039D002020928E55AB406028003020EF945
:100EE800C201E4F539F538F53A755A0AD20602090D
:100EF80028E55AB40A02800302101920090AD2A46C
:100F0800D2A5D2A6D2A78008D2A4C2A5D2A6D2A71B
:100F1800208020C0027A32120039D002208014309A
:100F280080FD755A117401120083C0027A02120002
:100F380039D002C202D2B7C0E07401141200C1D085
:100F4800E0C083C082C0E09005481200B4D0E0D071
:100F580082D083C0E07401141200BFD0E0855B3FEB
:100F68007540007541007542001200DCC000C0E009
:100F7800742012007EA84AE8540F443012007ED034
:100F8800E0D000C000A8491200C6D000C0E0740537
:100F9800141200BFD0E0C083C082C0E09005EF12F9
:100FA80000B4D0E0D082D083C0E0740B141200BF2C
:100FB800D0E085383F754000754100754200120049
:100FC800DCC000A8491200C6D000C0E0743A120084
:100FD8007ED0E085393F75400075410075420012AA
:100FE80000DCC000A8491200C6D000300111C201BF
:100FF800E55BC3B432005007755A10D207800FE57D
:1010080035C3955B5008755A0BE4F53AD2060209C8
:1010180028E55AB40B028003021110C2A5208020D3
:10102800C0027A32120039D0022080143080FD7557
:101038005A117401120083C0027A02120039D002D8
:10104800D202C0E07401141200C1D0E0C083C08293
:10105800C0E09005591200B4D0E0D082D083C0E03F
:101068007401141200BFD0E0855B3F7540007541E4
:10107800007542001200DCC000C0E0742012007E3F
:10108800A84AE8540F443012007ED0E0D000C000D7
:10109800A8491200C6D000C0E07405141200BFD0E1
:1010A800E0C083C082C0E09005EF1200B4D0E0D069
:1010B80082D083C0E0740B141200BFD0E085383FA3
:1010C8007540007541007542001200DCC000A84957
:1010D8001200C6D000C0E0743A12007ED0E0853914
:1010E8003F7540007541007542001200DCC000A841
:1010F800491200C6D000E53AC395344008755A0C29
:10110800E4F53AD206020928E55AB40C0280030233
:10111800121C20090AD2A4D2A5D2A6D2A78008D22E
:10112800A4D2A5C2A6D2A7208020C0027A3212007B
:1011380039D0022080143080FD755A1174011200D4
:1011480083C0027A02120039D002C202D2B7C0E0CC
:101158007401141200C1D0E0C083C082C0E09005C1
:10116800371200B4D0E0D082D083C0E074011412EA
:1011780000BFD0E0855B3F754000754100754200B7
:101188001200DCC000C0E0742012007EA84AE854B7
:101198000F443012007ED0E0D000C000A8491200F1
:1011A800C6D000C0E07405141200BFD0E0C083C0F0
:1011B80082C0E09005EF1200B4D0E0D082D083C0A6
:1011C800E0740B141200BFD0E085383F75400075FD
:1011D80041007542001200DCC000A8491200C6D0C8
:1011E80000C0E0743A12007ED0E085393F754000B7
:1011F8007541007542001200DCC000A8491200C603
:10120800D000E537C3955B5008755A0DD206E4F552
:101218003A020928E55AB40D02800302137BC2A6DC
:10122800208020C0027A32120039D0022080143087
:1012380080FD755A117401120083C0027A021200EF
:1012480039D002D202C0E07401141200C1D0E0C04B
:1012580083C082C0E090056A1200B4D0E0D082D08A
:1012680083C0E07401141200BFD0E0855B3F754075
:10127800007541007542001200DCC000C0E0742017
:1012880012007EA84AE8540F443012007ED0E0D005
:1012980000C000A8491200C6D000C0E074051412AE
:1012A80000BFD0E0C083C082C0E09005EF1200B458
:1012B800D0E0D082D083C0E0740B141200BFD0E01D
:1012C80085383F7540007541007542001200DCC04A
:1012D80000A8491200C6D000C0E0743A12007ED0BF
:1012E800E085393F7540007541007542001200DC09
:1012F800C000A8491200C6D000E55BC394EB40616A
:10130800C0E07401141200C1D0E0C083C082C0E004
:101318009005F61200B4D0E0D082D083C0E074010A
:10132800141200BFD0E0C083C082C0E0900607124C
:1013380000B4D0E0D082D083D206C0027AFA12007C
:1013480039D002C0027AFA120039D002C0027AFA01
:10135800120039D002C0027AFA120039D002755A46
:1013680011E536C3953A5008755A0EE4F53AD20796
:10137800020928E55AB40E028003021479C2A7D2E2
:10138800A4D2A5D2A6208020C0027A32120039D079
:10139800022080143080FD755A117401120083C038
:1013A800027A02120039D002C202C203C2B7C0E0F8
:1013B8007401141200C1D0E0C083C082C0E090055F
:1013C8007B1200B4D0E0D082D083C0E07401141244
:1013D80000BFD0E0855B3F75400075410075420055
:1013E8001200DCC000C0E0742012007EA84AE85455
:1013F8000F443012007ED0E0D000C000A84912008F
:10140800C6D000C0E07405141200BFD0E0C083C08D
:1014180082C0E09005EF1200B4D0E0D082D083C043
:10142800E0740B141200BFD0E085383F754000759A
:1014380041007542001200DCC000A8491200C6D065
:1014480000C0E0743A12007ED0E085393F75400054
:101458007541007542001200DCC000A8491200C6A0
:10146800D000E55BC3943C5005D208755A0F0209B9
:1014780028E55AB40F0280030214E9C2A4D2A5D207
:10148800A6D2A7C0E07401141200C1D0E0C083C086
:1014980082C0E090058C1200B4D0E0D082D083C026
:1014A800E07401141200BFD0E0C083C082C0E09095
:1014B80005BF1200B4D0E0D082D083208420C002BF
:1014C8007A32120039D0022084143084FD755A0013
:1014D8007401120083C0027A02120039D002020994
:1014E80028E55AB41002800302155FC2A6D2A4D21E
:1014F800A5D2A7C202C203C2B7C0E0740114120089
:10150800C1D0E0C083C082C0E090059D1200B4D075
:10151800E0D082D083C0E07401141200BFD0E0C0D4
:1015280083C082C0E09005BF1200B4D0E0D082D062
:1015380083208420C0027A32120039D00220841419
:101548003084FD755A007401120083C0027A0212B9
:101558000039D002020928C202C203C2B7C2A6D209
:10156800A4D2A5D2A7C0E07401141200C1D0E0C073
:1015780083C082C0E09005AE1200B4D0E0D082D023
:1015880083C0E07401141200BFD0E0C083C082C0E1
:10159800E09005BF1200B4D0E0D082D08320842030
:1015A800C0027A32120039D0022084143084FD75CA
:1015B8005A007401120083C0027A02120039D00264
:0315C800020928ED
:00000001FF
