:03000000020816DD
:0100030032CA
:01000B0032C2
:0100130032BA
:01001B0032B2
:0100230032AA
:03002B000205EDDE
:10002E00C00078B10000D8FCD00022C000C0017919
:10003E002D78A6D8FED9FADAF6D001D00022D294C5
:10004E0012002EC29422A2E792B5A2E692B4A2E5C5
:10005E0092B3A2E492B212004C12002EA2E392B519
:10006E00A2E292B4A2E192B3A2E092B212004C22AA
:10007E00D292020054C292020054C294C2937433BC
:10008E0012008374331200837432120083742812A8
:10009E000083740C1200837401120083C0027A0272
:1000AE00120039D00222E493600612007EA380F67D
:1000BE002244404480020083C0E0E8C4540F443020
:0E00CE0012007EE8540F443012007ED0E02273
:1000DC00C0E0C0D0C000C001C002E4F544F545F555
:1000EC0046F547F5487A20E53DA2E77904783AE6EB
:1000FC0033F608D9FA79057844E636D4F608D9F9F6
:10010C00DAE5D002D001D000D0D0D0E022C0E0C0DF
:10011C00D0C000C001C002E4F544F545F546F547F2
:10012C00F5487A20E53DA2E77904783AE633F608FB
:10013C00D9FA79057844C0D0E6243320E70224D0DC
:10014C0020E30224FDD0D033F608D9EADAD6D00267
:10015C00D001D000D0D0D0E022C0E0C0D0C000C0D0
:10016C0001C0027A207905C37848E613C0D030E785
:10017C000224D030E30224FDF618D0D0D9EC790457
:10018C00783DE613F618D9FADADBD002D001D000AC
:10019C00D0D0D0E022C0E0C0D0E53A253EF53AE51B
:1001AC003B353FF53BE53C3540F53CE53D3541F510
:1001BC003DD0D0D0E022C0E0C0D0C3E53A953EF5AA
:1001CC003AE53B953FF53BE53C9540F53CE53D95E7
:1001DC0041F53DD0D0D0E022C0E0C0D0C3E53A9587
:1001EC003EE53B953FE53C9540E53D95419200D081
:1001FC00D0D0E022C0E0C0D0C3E53E953AE53F95B3
:10020C003BE540953CE541953D9200D0D0D0E022B5
:10021C00C0E0C0D0C200C3E53E953A7014E53F95EE
:10022C003B700EE540953C7008E541953D7002D25F
:10023C0000D0D0D0E02212021C20000302020022C7
:10024C0012021C2000030201E422C0E0C0F0C0D066
:10025C00C000C001C002C003E53A853EF0A4F8A975
:10026C00F0E53B853EF0A429F9E435F0FAE53A8552
:10027C003FF0A429F9E5F03AFAE433FBE53C853E7E
:10028C00F0A42AFAE5F03BFBE53B853FF0A42AFA03
:10029C00E5F03BFBE53A8540F0A42AFAE5F03BFBA0
:1002AC00E53D853EF0A42BFBE53C853FF0A42BFB04
:1002BC00E53B8540F0A42BFBE53A8541F0A42BFBF4
:1002CC008B3D8A3C893B883AD003D002D001D000C8
:1002DC00D0D0D0F0D0E022C0E0C0D0C000C001C06F
:1002EC0002C003C0047C20E4F8F9FAFBC3E53A33FE
:1002FC00F53AE53B33F53BE53C33F53CE53D33F571
:10030C003DE833F8E933F9EA33FAEB33FBC3E8950C
:10031C003EE9953FEA9540EB95414013E8953EF850
:10032C00E9953FF9EA9540FAEB9541FB433A01DC3C
:10033C00BBD004D003D002D001D000D0D0D0E0226A
:10034C00D2A2C2A322C0E079007A08E833F892A1C5
:10035C00D2A3A2A2E933F9C2A3DAF0D0E022C2A060
:10036C007801120351E5F0C454F0D2E7F8120351AE
:10037C00E95403F54378551203518942D2A02275F2
:10038C003A00753B00753C00753D007D6412036AB4
:10039C0085423E85433F7540007541001201A1DD49
:1003AC00EC753E64753F007540007541001202E328
:0103BC00221E
:1003BD0079DE78A6D8FED9FAC28E53890F438920EB
:1003CD00438780758DF4758BF4D28E7598522230DB
:1003DD0099FDC299F59922E49360061203DCA3807E
:1003ED00F622C0E0E8C4540F44301203DCE8540F89
:1003FD0044301203DCD0E022C000A8451203EFD038
:0B040D0000C000A8441203EFD0002242
:10041800E58954F04401F589758CEA758AE8D2A912
:10042800C28C2275C80075CBA975CA9AE4F530F557
:0A04380031F533F532D2ADC2CA220D
:10044200205265666C6F7720436F6E74726F6C20FA
:10045200005374617274202F2053657474696E673F
:100462007300536F616B2054696D6520202020203A
:10047200202000536F616B2054656D70657261744A
:10048200757265005265666C6F772054696D6520E0
:1004920020202020005265666C6F772054656D70B5
:1004A20020202020200053746172742050726F63E8
:1004B2006573733F20200020202B20596573207C18
:1004C200202D204E6F20200050574D204953204FA1
:1004D2004E202020202020200050574D204953201C
:1004E2004F464620202020202000202020446174F6
:1004F200612053617665642020200050726F63652D
:1005020073732053746F7070656420002020202064
:10051200202020202020202020202020002D2052BA
:100522006573656C6563742056616C7309002B09F1
:100532005374617274205265666C6F770052616DFC
:100542007020746F205265666C6F772020005261B4
:100552006D7020746F20536F616B2020202000503B
:10056200726568656174202F20536F616B202000D3
:100572005265666C6F7720202020202020202020CA
:1005820000436F6F6C696E6720202020202020209E
:1005920020005265666C6F7720436F6D706C6574D6
:1005A200652100436865636B20542D436F75706C41
:1005B2006521200050726F636573732041626F7210
:1005C20074656421002D20436F6E74696E75653FFA
:1005D20020202020200054656D703A0054696D651A
:1005E2003A000A0020DF4300207300C2CFC0E0C0FF
:1005F200D005320530E53070020531E530B4E81639
:10060200E531B4031175300075310005380539E55F
:1006120039B43C02D201E532B4FA05D205E4F5322E
:1006220030021F053330030EE533B43F15C203C257
:10063200B7E4F533800CE533B4C007D203D2B7E494
:10064200F533D0D0D0E032C20575F00712038B1219
:10065200066775F00012038B12069E75F0011203F5
:100662008B1206E72285423E85433F754000754165
:1006720000753A31753B3B753C03753D001202E350
:10068200753E10753F277540007541001202568570
:100692003A4D853B4E853C4F853D5022854D3E85EA
:1006A2004E3F854F40855041120256753EFF753FC1
:1006B200037540007541001202E3753E10753FA8B4
:1006C2007540297541001201C2753E64753F00757F
:1006D20040007541001202E3853A49853B4A853C58
:1006E2004B853D4C22854D3E854E3F854F40855082
:1006F20041120256753EFF753F0375400075410079
:100702001202E3753E64753F0075400075410012A8
:100712000256753EC6753F017540007541001202D2
:10072200E3753E29753F007540007541001202E3F2
:1007320085493E854A3F854B40854C411201A17552
:100742003E64753F007540007541001202E3853A30
:1007520056853B57853C58853D591200DCC000A8A0
:10076200461203EFD000C000A8451203EFD0007478
:100772000A1203DCC0E07401141200C1D0E0C00010
:10078200A8481200C6D000C000A8471200C6D00078
:10079200C000A8461200C6D000C000A8451200C67C
:1007A200D000C000A8441200C6D00022C2AF759685
:1007B2005890000074FFF0759638E535F0A3E534E3
:1007C200F0A3E537F0A3E536F0A37455F0A374AABD
:1007D200F075961874FFF0759600D2AF22759608E0
:1007E200900004E0B4551BA3E0B4AA16900000E008
:1007F200F535A3E0F534A3E0F537A3E0F5367596B9
:10080200002275359675342D7537E175361E75964D
:100812000002084775817F75C10012041812042B6B
:10082200C2CAD2AF12034C1203BD120088C202C266
:1008320003C2B7C204C201E4F534F535F536F53723
:10084200F5551207DFE555300503120649B40002DB
:1008520080110208E67401120083C0027A021200BB
:1008620039D002C0E07401141200C1D0E0C083C0CC
:1008720082C0E09004421200B4D0E0D082D083C0A3
:10088200E07401141200BFD0E0C083C082C0E090C7
:1008920004531200B4D0E0D082D083208020C00262
:1008A2007A32120039D0022080143080FD75550151
:1008B2007401120083C0027A02120039D00220822F
:1008C20020C0027A32120039D0022082143082FD16
:1008D2007555057401120083C0027A02120039D0E4
:1008E20002020847B4010280110209BF740112001A
:1008F20083C0027A02120039D002D204C0E074012D
:10090200141200C1D0E0C083C082C0E0900464121F
:1009120000B4D0E0D082D083C0E07401141200BFD2
:10092200D0E085343A753B00753C00753D001200FD
:10093200DCC000A845C0E01200D1D000C000A8442D
:10094200C0E01200D1D000C0E07405141200BFD084
:10095200E0C083C082C0E09005EA1200B4D0E0D0CB
:1009620082D083208217C0027A32120039D002204C
:10097200820BC0027AC8120039D0020534208417D3
:10098200C0027A32120039D00220840BC0027AC827
:10099200120039D0021534208020C0027A321200AF
:1009A20039D0022080143080FD7555027401120086
:1009B20083C0027A02120039D002020847B402024E
:1009C2008011020A967401120083C0027A02120098
:1009D20039D002C0E07401141200C1D0E0C083C05B
:1009E20082C0E09004751200B4D0E0D082D083C0FF
:1009F200E07401141200BFD0E085353A753B0075F2
:100A02003C00753D001200DCC000A845C0E01200A9
:100A1200D1D000C000A844C0E01200D1D000C0E094
:100A22007405141200BFD0E0C083C082C0E09005FC
:100A3200E61200B4D0E0D082D083208217C0027ABE
:100A420032120039D00220820BC0027AC812003959
:100A5200D0020535208417C0027A32120039D00242
:100A620020840BC0027AC8120039D00215352080CA
:100A720020C0027A32120039D0022080143080FD68
:100A82007555037401120083C0027A02120039D034
:100A920002020847B403028011020B6D74011200B6
:100AA20083C0027A02120039D002C0E0740114122B
:100AB20000C1D0E0C083C082C0E09004861200B4BE
:100AC200D0E0D082D083C0E07401141200BFD0E025
:100AD20085363A753B00753C00753D001200DCC05E
:100AE20000A845C0E01200D1D000C000A844C0E078
:100AF2001200D1D000C0E07405141200BFD0E0C0D3
:100B020083C082C0E09005EA1200B4D0E0D082D067
:100B120083208217C0027A32120039D00220820B5F
:100B2200C0027AC8120039D0020536208417C002EA
:100B32007A32120039D00220840BC0027AC8120025
:100B420039D0021536208020C0027A32120039D004
:100B5200022080143080FD7555047401120083C098
:100B6200027A02120039D002020847B4040280114C
:100B7200020C447401120083C0027A02120039D0BE
:100B820002C0E07401141200C1D0E0C083C082C070
:100B9200E09004971200B4D0E0D082D083C0E07419
:100BA20001141200BFD0E085373A753B00753C0056
:100BB200753D001200DCC000A845C0E01200D1D093
:100BC20000C000A844C0E01200D1D000C0E074050B
:100BD200141200BFD0E0C083C082C0E09005E612CC
:100BE20000B4D0E0D082D083208217C0027A3212C1
:100BF2000039D00220820BC0027AC8120039D0021A
:100C02000537208417C0027A32120039D0022084BC
:100C12000BC0027AC8120039D0021537208020C0DA
:100C2200027A32120039D0022080143080FD7555CC
:100C3200007401120083C0027A02120039D002024B
:100C42000847B405028011020D627401120083C0CC
:100C5200027A02120039D0023004611207AEC204D5
:100C6200C0E07401141200C1D0E0C083C082C0E0B1
:100C72009004EC1200B4D0E0D082D083C0E07401C2
:100C8200141200BFD0E0C083C082C0E090050E12F3
:100C920000B4D0E0D082D083C0027AFA120039D0F8
:100CA20002C0027AFA120039D002C0027AFA1200A5
:100CB20039D002C0027AFA120039D002C0E07401BF
:100CC200141200C1D0E0C083C082C0E09004A81218
:100CD20000B4D0E0D082D083C0E07401141200BF0F
:100CE200D0E0C083C082C0E09004B91200B4D0E06A
:100CF200D082D083208420C0027A32120039D002FE
:100D02002084143084FD7555007401120083C002E2
:100D12007A02120039D002208220C0027A321200F6
:100D220039D0022082143082FD75550674011200FA
:100D320083C0027A02120039D002020847B40602C6
:100D42008011020D627401120083C0027A02120045
:100D520039D002E4F538F539D2CA75550A02084786
:100D6200B40A028011020E667401120083C0027A74
:100D720002120039D002208020C0027A32120039D9
:100D8200D0022080143080FD755511740112008349
:100D9200C0027A02120039D002C202D2B7C0E07495
:100DA20001141200C1D0E0C083C082C0E09005509F
:100DB2001200B4D0E0D082D083C0E07401141200DB
:100DC200BFD0E085563A753B00753C00753D001278
:100DD20000DCC000A845C0E01200D1D000C000A8CD
:100DE20044C0E01200D1D000C0E0740C141200BF65
:100DF200D0E085383A753B00753C00753D00120025
:100E0200DCC000A8451200C6D000C000A8441200F1
:100E1200C6D000C0E07410141200BFD0E0C0E0746D
:100E22007312007ED0E0C0E07405141200BFD0E05F
:100E3200C083C082C0E09005E61200B4D0E0D08248
:100E4200D08330010FE556C3B432005005755510FA
:100E5200800FC201E535C39556500675550BE4F572
:100E620039020847B40B028011020F5674011200B6
:100E720083C0027A02120039D002208020C0027A96
:100E820032120039D0022080143080FD7555117461
:100E920001120083C0027A02120039D002D202C0CB
:100EA200E07401141200C1D0E0C083C082C0E0909F
:100EB20005611200B4D0E0D082D083C0E074011486
:100EC2001200BFD0E085563A753B00753C00753D77
:100ED200001200DCC000A845C0E01200D1D000C062
:100EE20000A844C0E01200D1D000C0E0740C14127B
:100EF20000BFD0E085383A753B00753C00753D0077
:100F02001200DCC000A8451200C6D000C000A844F0
:100F12001200C6D000C0E07410141200BFD0E0C0AE
:100F2200E0747312007ED0E0C0E07405141200BFBA
:100F3200D0E0C083C082C0E09005E61200B4D0E0E9
:100F4200D082D083E539C39534500675550CE4F54B
:100F520039020847B40C02801102104874011200D1
:100F620083C0027A02120039D002208020C0027AA5
:100F720032120039D0022080143080FD7555117470
:100F820001120083C0027A02120039D002C202D2D8
:100F9200B7C0E07401141200C1D0E0C083C082C0A7
:100FA200E090053F1200B4D0E0D082D083C0E0745C
:100FB20001141200BFD0E085563A753B00753C0023
:100FC200753D001200DCC000A845C0E01200D1D07F
:100FD20000C000A844C0E01200D1D000C0E0740CF0
:100FE200141200BFD0E085383A753B00753C00759D
:100FF2003D001200DCC000A8451200C6D000C000AF
:10100200A8441200C6D000C0E07410141200BFD071
:10101200E0C0E0747312007ED0E0C0E074051412E8
:1010220000BFD0E0C083C082C0E09005E61200B4E9
:10103200D0E0D082D083E537C39556500675550D62
:10104200E4F539020847B40D028011021138740127
:10105200120083C0027A02120039D002208020C01E
:10106200027A32120039D0022080143080FD755588
:10107200117401120083C0027A02120039D002D226
:1010820002C0E07401141200C1D0E0C083C082C06B
:10109200E09005721200B4D0E0D082D083C0E07438
:1010A20001141200BFD0E085563A753B00753C0032
:1010B200753D001200DCC000A845C0E01200D1D08E
:1010C20000C000A844C0E01200D1D000C0E0740CFF
:1010D200141200BFD0E085383A753B00753C0075AC
:1010E2003D001200DCC000A8451200C6D000C000BE
:1010F200A8441200C6D000C0E07410141200BFD081
:10110200E0C0E0747312007ED0E0C0E074051412F7
:1011120000BFD0E0C083C082C0E09005E61200B4F8
:10112200D0E0D082D083E536C39539500675550E8E
:10113200E4F539020847B40E028011021229740143
:10114200120083C0027A02120039D002208020C02D
:10115200027A32120039D0022080143080FD755597
:10116200117401120083C0027A02120039D002C245
:1011720002C203C2B7C0E07401141200C1D0E0C0C1
:1011820083C082C0E09005831200B4D0E0D082D048
:1011920083C0E07401141200BFD0E085563A753B5B
:1011A20000753C00753D001200DCC000A845C0E09F
:1011B2001200D1D000C000A844C0E01200D1D0007B
:1011C200C0E0740C141200BFD0E085383A753B00C1
:1011D200753C00753D001200DCC000A8451200C637
:1011E200D000C000A8441200C6D000C0E0741014A1
:1011F2001200BFD0E0C0E0747312007ED0E0C0E005
:101202007405141200BFD0E0C083C082C0E0900514
:10121200E61200B4D0E0D082D083E556C3943C50AD
:101222000375550F020847B40F02801102129F7412
:1012320001120083C0027A02120039D002C2CAC06F
:10124200E07401141200C1D0E0C083C082C0E090FB
:1012520005941200B4D0E0D082D083C0E0740114AF
:101262001200BFD0E0C083C082C0E09005C7120068
:10127200B4D0E0D082D083208420C0027A3212001F
:1012820039D0022084143084FD7555007401120097
:1012920083C0027A02120039D002020847B4100257
:1012A200801102131B7401120083C0027A02120021
:1012B20039D002C2CAC202C203C2B7C0E07401146A
:1012C2001200C1D0E0C083C082C0E09005A5120028
:1012D200B4D0E0D082D083C0E07401141200BFD039
:1012E200E0C083C082C0E09005C71200B4D0E0D055
:1012F20082D083208420C0027A32120039D00220A8
:1013020084143084FD7555007401120083C0027A82
:1013120002120039D002020847C2CAC202C203C284
:10132200B7C0E07401141200C1D0E0C083C082C013
:10133200E09005B61200B4D0E0D082D083C0E07451
:1013420001141200BFD0E0C083C082C0E09005C784
:101352001200B4D0E0D082D083208420C0027A323E
:10136200120039D0022084143084FD7555007401B6
:0F137200120083C0027A02120039D0020208472B
:00000001FF
