:03000000020827CC
:0100030032CA
:01000B0032C2
:0100130032BA
:01001B0032B2
:0100230032AA
:03002B000205FECD
:10002E00C00078B10000D8FCD00022C000C0017919
:10003E002D78A6D8FED9FADAF6D001D00022D294C5
:10004E0012002EC29422A2E792B5A2E692B4A2E5C5
:10005E0092B3A2E492B212004C12002EA2E392B519
:10006E00A2E292B4A2E192B3A2E092B212004C22AA
:10007E00D292020054C292020054C294C2937433BC
:10008E0012008374331200837432120083742812A8
:10009E000083740C1200837401120083C0027A0272
:1000AE00120039D00222E493600612007EA380F67D
:1000BE002244404480020083C0E0E8C4540F443020
:0E00CE0012007EE8540F443012007ED0E02273
:1000DC00C0E0C0D0C000C001C002E4F544F545F555
:1000EC0046F547F5487A20E53DA2E77904783AE6EB
:1000FC0033F608D9FA79057844E636D4F608D9F9F6
:10010C00DAE5D002D001D000D0D0D0E022C0E0C0DF
:10011C00D0C000C001C002E4F544F545F546F547F2
:10012C00F5487A20E53DA2E77904783AE633F608FB
:10013C00D9FA79057844C0D0E6243320E70224D0DC
:10014C0020E30224FDD0D033F608D9EADAD6D00267
:10015C00D001D000D0D0D0E022C0E0C0D0C000C0D0
:10016C0001C0027A207905C37848E613C0D030E785
:10017C000224D030E30224FDF618D0D0D9EC790457
:10018C00783DE613F618D9FADADBD002D001D000AC
:10019C00D0D0D0E022C0E0C0D0E53A253EF53AE51B
:1001AC003B353FF53BE53C3540F53CE53D3541F510
:1001BC003DD0D0D0E022C0E0C0D0C3E53A953EF5AA
:1001CC003AE53B953FF53BE53C9540F53CE53D95E7
:1001DC0041F53DD0D0D0E022C0E0C0D0C3E53A9587
:1001EC003EE53B953FE53C9540E53D95419200D081
:1001FC00D0D0E022C0E0C0D0C3E53E953AE53F95B3
:10020C003BE540953CE541953D9200D0D0D0E022B5
:10021C00C0E0C0D0C200C3E53E953A7014E53F95EE
:10022C003B700EE540953C7008E541953D7002D25F
:10023C0000D0D0D0E02212021C20000302020022C7
:10024C0012021C2000030201E422C0E0C0F0C0D066
:10025C00C000C001C002C003E53A853EF0A4F8A975
:10026C00F0E53B853EF0A429F9E435F0FAE53A8552
:10027C003FF0A429F9E5F03AFAE433FBE53C853E7E
:10028C00F0A42AFAE5F03BFBE53B853FF0A42AFA03
:10029C00E5F03BFBE53A8540F0A42AFAE5F03BFBA0
:1002AC00E53D853EF0A42BFBE53C853FF0A42BFB04
:1002BC00E53B8540F0A42BFBE53A8541F0A42BFBF4
:1002CC008B3D8A3C893B883AD003D002D001D000C8
:1002DC00D0D0D0F0D0E022C0E0C0D0C000C001C06F
:1002EC0002C003C0047C20E4F8F9FAFBC3E53A33FE
:1002FC00F53AE53B33F53BE53C33F53CE53D33F571
:10030C003DE833F8E933F9EA33FAEB33FBC3E8950C
:10031C003EE9953FEA9540EB95414013E8953EF850
:10032C00E9953FF9EA9540FAEB9541FB433A01DC3C
:10033C00BBD004D003D002D001D000D0D0D0E0226A
:10034C00D2A2C2A322C0E079007A08E833F892A1C5
:10035C00D2A3A2A2E933F9C2A3DAF0D0E022C2A060
:10036C007801120351E5F0C454F0D2E7F8120351AE
:10037C00E95403F54378551203518942D2A02275F2
:10038C003A00753B00753C00753D007D6412036AB4
:10039C0085423E85433F7540007541001201A1DD49
:1003AC00EC753E64753F007540007541001202E328
:0103BC00221E
:1003BD0079DE78A6D8FED9FAC28E53890F438920EB
:1003CD00438780758DF4758BF4D28E7598522230DB
:1003DD0099FDC299F59922E49360061203DCA3807E
:1003ED00F622C0E0E8C4540F44301203DCE8540F89
:1003FD0044301203DCD0E022C000A8451203EFD038
:0B040D0000C000A8441203EFD0002242
:10041800E58954F04401F589758CEA758AE8D2A912
:10042800C28C2275C80075CBA975CA9AE4F530F557
:0A04380031F533F532D2ADC2CA220D
:10044200205265666C6F7720436F6E74726F6C20FA
:10045200005374617274202F2053657474696E673F
:100462007300536F616B2054696D6520202020203A
:10047200202000536F616B2054656D70657261744A
:10048200757265005265666C6F772054696D6520E0
:1004920020202020005265666C6F772054656D70B5
:1004A20020202020200053746172742050726F63E8
:1004B2006573733F20200020202D204E6F207C206A
:1004C2002B2059657320200050574D204953204F4F
:1004D2004E202020202020200050574D204953201C
:1004E2004F464620202020202000202020446174F6
:1004F200612053617665642020200050726F63652D
:1005020073732053746F7070656420002020202064
:10051200202020202020202020202020002D2052BA
:100522006573656C6563742056616C7309002B09F1
:100532005374617274205265666C6F770052616DFC
:100542007020746F205265666C6F772020005261B4
:100552006D7020746F20536F616B2020202000503B
:10056200726568656174202F20536F616B202000D3
:100572005265666C6F7720202020202020202020CA
:1005820000436F6F6C696E6720202020202020209E
:1005920020005265666C6F7720436F6D706C6574D6
:1005A200652100436865636B20542D436F75706C41
:1005B2006521200050726F636573732041626F7210
:1005C20074656421002D20436F6E74696E75653FFA
:1005D20020202020200054656D703A0054696D651A
:1005E2003A000A0020DF43002073002049545320C0
:1005F200574F524B494E47213F202000C2CFC0E007
:10060200C0D005320530E53070020531E530B4E87E
:1006120016E531B40311753000753100053805391E
:10062200E539B43C02D201E532B4FA05D205E4F56B
:100632003230021F053330030EE533B43F15C203D7
:10064200C2B7E4F533800CE533B4C007D203D2B7A6
:10065200E4F533D0D0D0E032C20575F00712038B37
:1006620012067875F00012038B1206AF75F00112B4
:10067200038B1206F82285423E85433F7540007582
:100682004100753A31753B3B753C03753D001202E2
:10069200E3753E10753F2775400075410012025602
:1006A200853A4D853B4E853C4F853D5022854D3EDA
:1006B200854E3F854F40855041120256753EFF756B
:1006C2003F037540007541001202E3753E10753F0D
:1006D200A87540297541001201C2753E64753F003C
:1006E2007540007541001202E3853A49853B4A850F
:1006F2003C4B853D4C22854D3E854E3F854F408586
:100702005041120256753EFF753F03754000754118
:10071200001202E3753E64753F00754000754100AA
:10072200120256753EC6753F0175400075410012B2
:1007320002E3753E29753F007540007541001202C3
:10074200E385493E854A3F854B40854C411201A1D4
:10075200753E64753F007540007541001202E385E5
:100762003A56853B57853C58853D591200DCC000FE
:10077200A8451203EFD000C000A8441203EFD00036
:10078200740A1203DCC0E07401141200C1D0E0C08C
:1007920000A8481200C6D000C000A8471200C6D068
:1007A20000C000A8461200C6D000C000A845120032
:1007B200C6D000C000A8441200C6D00022C2AF7545
:1007C200965890000074FFF0759638E535F0A3E571
:1007D20034F0A3E537F0A3E536F0A37455F0A37423
:1007E200AAF075961874FFF0759600D2AF2275962E
:1007F20008900004E0B4551BA3E0B4AA16900000D0
:10080200E0F535A3E0F534A3E0F537A3E0F536755E
:1008120096002275359675342D7537E175361E753D
:10082200960002085C75817F75C1001204181204DB
:100832002BC2CAD2AF12034C1203BD120088C202ED
:10084200C203C2B7C204C201C205E4F534F535F5EC
:1008520036F537F555F5391207F030050312065A09
:10086200E555B4000280030208EDC0E074011412E1
:1008720000C1D0E0C083C082C0E09004421200B444
:10088200D0E0D082D083C0E07401141200BFD0E067
:10089200C083C082C0E09004531200B4D0E0D08282
:1008A200D083208020C0027A32120039D002208008
:1008B200143080FD7555017401120083C0027A0262
:1008C200120039D002208220C0027A32120039D0BE
:1008D200022082143082FD7555057401120083C016
:1008E200027A02120039D00202085CE555B4010214
:1008F20080030209C4D204C0E07401141200C1D002
:10090200E0C083C082C0E09004641200B4D0E0D0A2
:1009120082D083C0E07401141200BFD0E085343A63
:10092200753B00753C00753D001200DCC000C0E064
:10093200742012007EA845E8540F443012007ED085
:10094200E0D000C000A8441200C6D000C0E0740588
:10095200141200BFD0E0C083C082C0E09005EA124A
:1009620000B4D0E0D082D083208217C0027A321243
:100972000039D00220820BC0027AC8120039D0029C
:100982000534208417C0027A32120039D002208442
:100992000BC0027AC8120039D0021534208020C060
:1009A200027A32120039D0022080143080FD75554F
:1009B200027401120083C0027A02120039D00202CC
:1009C200085CE555B402028003020A99C0E0740192
:1009D200141200C1D0E0C083C082C0E0900475123E
:1009E20000B4D0E0D082D083C0E07401141200BF02
:1009F200D0E085353A753B00753C00753D0012002C
:100A0200DCC000C0E0742012007EA845E8540F4408
:100A12003012007ED0E0D000C000A8441200C6D040
:100A220000C0E07405141200BFD0E0C083C082C0D1
:100A3200E09005E61200B4D0E0D082D08320821785
:100A4200C0027A32120039D00220820BC0027AC868
:100A5200120039D0020535208417C0027A32120002
:100A620039D00220840BC0027AC8120039D0021594
:100A720035208020C0027A32120039D00220801440
:100A82003080FD7555037401120083C0027A021290
:100A92000039D00202085CE555B403028003020B60
:100AA2006EC0E07401141200C1D0E0C083C082C0E5
:100AB200E09004861200B4D0E0D082D083C0E0740B
:100AC20001141200BFD0E085363A753B00753C0038
:100AD200753D001200DCC000C0E0742012007EA848
:100AE20045E8540F443012007ED0E0D000C000A888
:100AF200441200C6D000C0E07405141200BFD0E05A
:100B0200C083C082C0E09005EA1200B4D0E0D08277
:100B1200D083208217C0027A32120039D00220829A
:100B22000BC0027AC8120039D0020536208417C0E1
:100B3200027A32120039D00220840BC0027AC81223
:100B42000039D0021536208020C0027A32120039D4
:100B5200D0022080143080FD755504740112008388
:100B6200C0027A02120039D00202085CE555B404D0
:100B7200028003020C43C0E07401141200C1D0E0F1
:100B8200C083C082C0E09004971200B4D0E0D0824B
:100B9200D083C0E07401141200BFD0E085373A75EB
:100BA2003B00753C00753D001200DCC000C0E074E3
:100BB2002012007EA845E8540F443012007ED0E097
:100BC200D000C000A8441200C6D000C0E0740514D2
:100BD2001200BFD0E0C083C082C0E09005E61200E0
:100BE200B4D0E0D082D083208217C0027A321200C1
:100BF20039D00220820BC0027AC8120039D0020515
:100C020037208417C0027A32120039D00220840BB6
:100C1200C0027AC8120039D0021537208020C002E3
:100C22007A32120039D0022080143080FD755500CE
:100C32007401120083C0027A02120039D002020843
:100C42005CE555B405028003020D323004611207DF
:100C5200BFC204C0E07401141200C1D0E0C083C05E
:100C620082C0E09004EC1200B4D0E0D082D083C005
:100C7200E07401141200BFD0E0C083C082C0E090D3
:100C8200050E1200B4D0E0D082D083C0027AFA12EC
:100C92000039D002C0027AFA120039D002C0027AB8
:100CA200FA120039D002C0027AFA120039D002C018
:100CB200E07401141200C1D0E0C083C082C0E09091
:100CC20004A81200B4D0E0D082D083C0E074011432
:100CD2001200BFD0E0C083C082C0E09004B912000D
:100CE200B4D0E0D082D083208420C0027A321200B5
:100CF20039D0022084143084FD755500740112002D
:100D020083C0027A02120039D002208220C0027A05
:100D120032120039D0022082143082FD75550674D9
:100D220001120083C0027A02120039D00202085C6A
:100D3200E555B406028003020D4BE4F538F539D2CD
:100D420005D2CA75550A02085CE555B40A02800349
:100D5200020E4D208020C0027A32120039D00220C9
:100D620080143080FD7555117401120083C0027A1F
:100D720002120039D002C202D2B7C0E074011412CA
:100D820000C1D0E0C083C082C0E09005501200B420
:100D9200D0E0D082D083C0E07401141200BFD0E052
:100DA20085563A753B00753C00753D001200DCC06B
:100DB20000C0E0742012007EA845E8540F443012AF
:100DC200007ED0E0D000C000A8441200C6D000C00F
:100DD200E0740C141200BFD0E085393A753B0075FF
:100DE2003C00753D001200DCC000A8451200C6D0D0
:100DF20000C000A8441200C6D000C0E07410141253
:100E020000BFD0E0C0E0747312007ED0E0C0E07496
:100E120005141200BFD0E0C083C082C0E09005E696
:100E22001200B4D0E0D082D08330010FC201E55667
:100E3200C3B432005005755510800DE535C3955683
:100E4200500675550BE4F53902085CE555B40B0202
:100E52008003020F39208020C0027A32120039D07A
:100E6200022080143080FD7555117401120083C078
:100E7200027A02120039D002D202C0E074011412C6
:100E820000C1D0E0C083C082C0E09005611200B40E
:100E9200D0E0D082D083C0E07401141200BFD0E051
:100EA20085563A753B00753C00753D001200DCC06A
:100EB20000C0E0742012007EA845E8540F443012AE
:100EC200007ED0E0D000C000A8441200C6D000C00E
:100ED200E0740C141200BFD0E085393A753B0075FE
:100EE2003C00753D001200DCC000A8451200C6D0CF
:100EF20000C000A8441200C6D000C0E07410141252
:100F020000BFD0E0C0E0747312007ED0E0C0E07495
:100F120005141200BFD0E0C083C082C0E09005E695
:100F22001200B4D0E0D082D083E539B534067555CD
:100F32000CE4F53902085CE555B40C02800302109A
:100F420029208020C0027A32120039D00220801477
:100F52003080FD7555117401120083C0027A0212AD
:100F62000039D002C202D2B7C0E07401141200C12B
:100F7200D0E0C083C082C0E090053F1200B4D0E050
:100F8200D082D083C0E07401141200BFD0E0855635
:100F92003A753B00753C00753D001200DCC000C094
:100FA200E0742012007EA845E8540F443012007EFF
:100FB200D0E0D000C000A8441200C6D000C0E07447
:100FC2000C141200BFD0E085393A753B00753C0025
:100FD200753D001200DCC000A8451200C6D000C05A
:100FE20000A8441200C6D000C0E07410141200BF62
:100FF200D0E0C0E0747312007ED0E0C0E07405144B
:101002001200BFD0E0C083C082C0E09005E61200AB
:10101200B4D0E0D082D083E537C3955650067555DB
:101022000DE4F53902085CE555B40D0280030211A6
:1010320015208020C0027A32120039D0022080149A
:101042003080FD7555117401120083C0027A0212BC
:101052000039D002D202C0E07401141200C1D0E003
:10106200C083C082C0E09005721200B4D0E0D0828A
:10107200D083C0E07401141200BFD0E085563A75E7
:101082003B00753C00753D001200DCC000C0E074FE
:101092002012007EA845E8540F443012007ED0E0B2
:1010A200D000C000A8441200C6D000C0E0740C14E6
:1010B2001200BFD0E085393A753B00753C00753DA2
:1010C200001200DCC000A8451200C6D000C000A873
:1010D200441200C6D000C0E07410141200BFD0E069
:1010E200C0E0747312007ED0E0C0E07405141200F8
:1010F200BFD0E0C083C082C0E09005E61200B4D049
:10110200E0D082D083E536B5390675550EE4F5395F
:1011120002085CE555B40E0280030212042080200E
:10112200C0027A32120039D0022080143080FD755C
:1011320055117401120083C0027A02120039D002E2
:10114200C202C203C2B7C0E07401141200C1D0E0EF
:10115200C083C082C0E09005831200B4D0E0D08288
:10116200D083C0E07401141200BFD0E085563A75F6
:101172003B00753C00753D001200DCC000C0E0740D
:101182002012007EA845E8540F443012007ED0E0C1
:10119200D000C000A8441200C6D000C0E0740C14F5
:1011A2001200BFD0E085393A753B00753C00753DB1
:1011B200001200DCC000A8451200C6D000C000A882
:1011C200441200C6D000C0E07410141200BFD0E078
:1011D200C0E0747312007ED0E0C0E0740514120007
:1011E200BFD0E0C083C082C0E09005E61200B4D058
:1011F200E0D082D083E556C3943C500375550F026C
:10120200085CE555B40F02800302126EC2CAC0E048
:101212007401141200C1D0E0C083C082C0E0900506
:10122200941200B4D0E0D082D083C0E074011412D2
:1012320000BFD0E0C083C082C0E09005C71200B4F6
:10124200D0E0D082D083208420C0027A32120039CA
:10125200D0022084143084FD75550074011200837D
:10126200C0027A02120039D00202085CE555B410BD
:101272000280030212DEC2CAC202C203C2B7C0E0C7
:101282007401141200C1D0E0C083C082C0E0900596
:10129200A51200B4D0E0D082D083C0E07401141251
:1012A20000BFD0E0C083C082C0E09005C71200B486
:1012B200D0E0D082D083208420C0027A321200395A
:1012C200D0022084143084FD75550074011200830D
:1012D200C0027A02120039D00202085CC2CAC202FB
:1012E200C203C2B7C0E07401141200C1D0E0C083CF
:1012F200C082C0E09005B61200B4D0E0D082D083A4
:10130200C0E07401141200BFD0E0C083C082C0E00C
:101312009005C71200B4D0E0D082D083208420C0D0
:10132200027A32120039D0022084143084FD7555BD
:10133200007401120083C0027A02120039D0020244
:02134200085C45
:00000001FF
