:030000000203CB2D
:03000B0002036C81
:10000E00C00078B10000D8FCD00022C000C0017939
:10001E002D78A6D8FED9FADAF6D001D00022D294E5
:10002E0012000EC29422A2E792B5A2E692B4A2E505
:10003E0092B3A2E492B212002C12000EA2E392B579
:10004E00A2E292B4A2E192B3A2E092B212002C22EA
:10005E00D292020034C292020034C294C29374331C
:10006E001200637433120063743212006374281228
:10007E000063740C1200637401120063C0027A02F2
:10008E00120019D00222E493600612005EA380F6DD
:10009E002244404480020063C0E0E8C4540F443060
:0E00AE0012005EE8540F443012005ED0E022D3
:1000BC00C0E0C0D0C000C001C002E4F54CF54DF565
:1000CC004EF54FF5507A20E53BA2E779047838E6F7
:1000DC0033F608D9FA7905784CE636D4F608D9F90E
:1000EC00DAE5D002D001D000D0D0D0E022C0E0C000
:1000FC00D0C000C001C002E4F54CF54DF54EF54FF3
:10010C00F5507A20E53BA2E779047838E633F60817
:10011C00D9FA7905784CC0D0E6243320E70224D0F4
:10012C0020E30224FDD0D033F608D9EADAD6D00287
:10013C00D001D000D0D0D0E022C0E0C0D0C000C0F0
:10014C0001C0027A207905C37850E613C0D030E79D
:10015C000224D030E30224FDF618D0D0D9EC790477
:10016C00783BE613F618D9FADADBD002D001D000CE
:10017C00D0D0D0E022C0E0C0D0E538253CF538E541
:10018C0039353DF539E53A353EF53AE53B353FF540
:10019C003BD0D0D0E022C0E0C0D0C3E538953CF5D0
:1001AC0038E539953DF539E53A953EF53AE53B9517
:1001BC003FF53BD0D0D0E022C0E0C0D0C3E53895AD
:1001CC003CE539953DE53A953EE53B953F9200D0AF
:1001DC00D0D0E022C0E0C0D0C3E53C9538E53D95D9
:1001EC0039E53E953AE53F953B9200D0D0D0E022E0
:1001FC00C0E0C0D0C200C3E53C95387014E53D9515
:10020C0039700EE53E953A7008E53F953B7002D289
:10021C0000D0D0D0E0221201FC2000030201E02229
:10022C001201FC2000030201C422C0E0C0F0C0D0C7
:10023C00C000C001C002C003E538853CF0A4F8A999
:10024C00F0E539853CF0A429F9E435F0FAE5388578
:10025C003DF0A429F9E5F03AFAE433FBE53A853CA4
:10026C00F0A42AFAE5F03BFBE539853DF0A42AFA27
:10027C00E5F03BFBE538853EF0A42AFAE5F03BFBC4
:10028C00E53B853CF0A42BFBE53A853DF0A42BFB2C
:10029C00E539853EF0A42BFBE538853FF0A42BFB1C
:1002AC008B3B8A3A89398838D003D002D001D000F0
:1002BC00D0D0D0F0D0E022C0E0C0D0C000C001C08F
:1002CC0002C003C0047C20E4F8F9FAFBC3E5383320
:1002DC00F538E53933F539E53A33F53AE53B33F59D
:1002EC003BE833F8E933F9EA33FAEB33FBC3E8952F
:1002FC003CE9953DEA953EEB953F4013E8953CF87B
:10030C00E9953DF9EA953EFAEB953FFB433801DC64
:10031C00BBD004D003D002D001D000D0D0D0E0228A
:10032C0020DF430020DF460020DF4B00C2A0780115
:10033C00120380E5F0C454F0D2E7F8120380E954BC
:10034C0003F53778551203808936D2A022E58954FB
:10035C00F04401F589758CA9758A9AD2A9C28C22B0
:10036C00C28C758CA9758A9AD28CB2A732D2A2C2D1
:10037C00A3D2A022C0E079007A08E833F892A1D287
:10038C00A3A2A2E933F9C2A3DAF0D0E02279DE7895
:10039C00A6D8FED9FAC28E53890F43892043878091
:1003AC00758DF4758BF4D28E759852223099FDC2EE
:1003BC0099F59922E49360061203B8A380F622758E
:1003CC00817F75C100D2AF120359D201C202C203A0
:1003DC00D2A4D2A5D2A61203791203991200687581
:1003EC00F00712033812047075F00012033812046F
:1003FC00A7C0027A64120019D002E553B440004041
:10040C0014B460004019B48000401ED2A6D2A5B22C
:10041C00A4B28C801CC2A6D2A5D2A4C28C8012D24B
:10042C00A6C2A5D2A4C28C8008D2A6D2A5C2A4C250
:10043C008C20C5ABC0027A32120019D00220C59FA5
:10044C00C0027A32120019D00220020A20010EC218
:10045C0003D2010203EBC202D2030203EBC201D2AC
:10046C00020203EB753F00753E0085373D85363C37
:10047C0075383175393B753A03753B001202C375FB
:10048C003C10753D27753E00753F00120236853BCA
:10049C0035853A3485393385383222753B00753AC7
:1004AC0000853739853638753C40753D4B753E4C6B
:1004BC00753F00120236753CFF753D03753E0075A5
:1004CC003F001202C31200BC854F59854E58854D12
:1004DC0057854C56753C10753DA8753E29753F00E7
:1004EC001201A21200BC854F54854E53854D528586
:1004FC004C51E54CF9540F2430F55BE954F0C4240D
:10050C0030F55CE54DF9540F2430F55DE954F0C439
:10051C002430F55EE54EF9540F2430F55FE954F0C4
:10052C00C42430F560E54FF9540F2430F561E954DB
:10053C00F0C42430F562E550F9540F2430F563E92A
:10054C0054F0C42430F564E5611203B8E56012037D
:10055C00B8E55F1203B8E55E1203B8E55D1203B8A7
:10056C00E55C1203B8E55B1203B8740A1203B875A4
:10057C003C09753D00753E00753F00120236753C16
:10058C0005753D00753E00753F001202C3753C00B9
:10059C00753DE2753E04753F001201811200BCC02E
:1005AC00E0740A141200A1D0E0200223200134854B
:1005BC00594F85584E85574D85564CC083C082C0C7
:1005CC00E0900334120094D0E0D082D0838032C00B
:1005DC0083C082C0E0900330120094D0E0D082D06F
:1005EC0083801E85544F85534E85524D85514CC08A
:1005FC0083C082C0E090032C120094D0E0D082D053
:10060C0083E54FB400028028C0E07401141200A1ED
:10061C00D0E0C000A84F1200A6D000C0E0740114B6
:10062C001200A1D0E0C0E0742012005ED0E0801C6B
:10063C00C0E07401141200A1D0E0C0E074201200DC
:10064C005ED0E0C0E0742012005ED0E0C0E0740325
:10065C00141200A1D0E0C000A84E1200A6D000C019
:10066C00E0742E12005ED0E0C000A84D1200A6D09F
:0B067C0000C000A84C1200A6D0002215
:00000001FF
