:0300000002088D66
:0100030032CA
:03000B000205EA01
:0100130032BA
:01001B0032B2
:0100230032AA
:03002B00020629A1
:10002E00C00078B10000D8FCD00022C000C0017919
:10003E002D78A6D8FED9FADAF6D001D00022D294C5
:10004E0012002EC29422A2E792B5A2E692B4A2E5C5
:10005E0092B3A2E492B212004C12002EA2E392B519
:10006E00A2E292B4A2E192B3A2E092B212004C22AA
:10007E00D292020054C292020054C294C2937433BC
:10008E0012008374331200837432120083742812A8
:10009E000083740C1200837401120083C0027A0272
:1000AE00120039D00222E493600612007EA380F67D
:1000BE002244404480020083C0E0E8C4540F443020
:0E00CE0012007EE8540F443012007ED0E02273
:1000DC00C0E0C0D0C000C001C002E4F549F54AF54B
:1000EC004BF54CF54D7A20E542A2E77904783FE6D2
:1000FC0033F608D9FA79057849E636D4F608D9F9F1
:10010C00DAE5D002D001D000D0D0D0E022C0E0C0DF
:10011C00D0C000C001C002E4F549F54AF54BF54CDE
:10012C00F54D7A20E542A2E77904783FE633F608EC
:10013C00D9FA79057849C0D0E6243320E70224D0D7
:10014C0020E30224FDD0D033F608D9EADAD6D00267
:10015C00D001D000D0D0D0E022C0E0C0D0C000C0D0
:10016C0001C0027A207905C3784DE613C0D030E780
:10017C000224D030E30224FDF618D0D0D9EC790457
:10018C007842E613F618D9FADADBD002D001D000A7
:10019C00D0D0D0E022C0E0C0D0E53F2543F53FE50C
:1001AC00403544F540E5413545F541E5423546F5E8
:1001BC0042D0D0D0E022C0E0C0D0C3E53F9543F59B
:1001CC003FE5409544F540E5419545F541E54295BF
:1001DC0046F542D0D0D0E022C0E0C0D0C3E53F9578
:1001EC0043E5409544E5419545E54295469200D05E
:1001FC00D0D0E022C0E0C0D0C3E543953FE54495A4
:10020C0040E5459541E54695429200D0D0D0E0229C
:10021C00C0E0C0D0C200C3E543953F7014E54495DF
:10022C0040700EE54595417008E54695427002D246
:10023C0000D0D0D0E02212021C20000302020022C7
:10024C0012021C2000030201E422C0E0C0F0C0D066
:10025C00C000C001C002C003E53F8543F0A4F8A96B
:10026C00F0E5408543F0A429F9E435F0FAE53F8543
:10027C0044F0A429F9E5F03AFAE433FBE54185436F
:10028C00F0A42AFAE5F03BFBE5408544F0A42AFAF9
:10029C00E5F03BFBE53F8545F0A42AFAE5F03BFB96
:1002AC00E5428543F0A42BFBE5418544F0A42BFBF0
:1002BC00E5408545F0A42BFBE53F8546F0A42BFBE0
:1002CC008B428A418940883FD003D002D001D000B4
:1002DC00D0D0D0F0D0E022C0E0C0D0C000C001C06F
:1002EC0002C003C0047C20E4F8F9FAFBC3E53F33F9
:1002FC00F53FE54033F540E54133F541E54233F553
:10030C0042E833F8E933F9EA33FAEB33FBC3E89507
:10031C0043E99544EA9545EB95464013E89543F837
:10032C00E99544F9EA9545FAEB9546FB433F01DC28
:10033C00BBD004D003D002D001D000D0D0D0E0226A
:10034C00D2A2C2A322C0E079007A08E833F892A1C5
:10035C00D2A3A2A2E933F9C2A3DAF0D0E022C2A060
:10036C007801120351E5F0C454F0D2E7F8120351AE
:10037C00E95403F54878551203518947D2A02275E8
:10038C003F007540007541007542007D6412036AA0
:10039C008547438548447545007546001201A1DD2B
:1003AC00EC7543647544007545007546001202E314
:0103BC00221E
:1003BD0079DE78A6D8FED9FAC28E53890F438920EB
:1003CD00438780758DF4758BF4D28E7598522230DB
:1003DD0099FDC299F59922E49360061203DCA3807E
:1003ED00F622C0E0E8C4540F44301203DCE8540F89
:1003FD0044301203DCD0E022C000A84A1203EFD033
:0B040D0000C000A8491203EFD000223D
:10041800205265666C6F7720436F6E74726F6C2024
:10042800005374617274202F2053657474696E6769
:100438007300536F616B2054696D65202020202064
:10044800202000536F616B2054656D706572617474
:10045800757265005265666C6F772054696D65200A
:1004680020202020005265666C6F772054656D70DF
:1004780020202020200053746172742050726F6312
:100488006573733F20200020202D204E6F207C2094
:100498002B2059657320200020436F6F6C696E67AD
:1004A8002E2E2E20202020200020506C65617365A0
:1004B8002057616974202020200020202044617486
:1004C800612053617665642020200050726F636557
:1004D80073732053746F707065642000202020208F
:1004E800202020202020202020202020002D2052E5
:1004F8006573656C6563742056616C7309002B091C
:100508005374617274205265666C6F770052616D26
:100518007020746F205265666C6F772020005261DE
:100528006D7020746F20536F616B20202020005065
:10053800726568656174202F20536F616B202000FD
:100548005265666C6F7720202020202020202020F4
:1005580000436F6F6C696E672020202020202020C8
:1005680020005265666C6F7720436F6D706C657400
:10057800652100436865636B20542D436F75706C6B
:100588006521200050726F636573732041626F723A
:1005980074656421002D20436F6E74696E75653F24
:1005A800202020202000504342204275726E2057A0
:1005B80061726E696E6700205072657373205374A0
:1005C8006F7020202020200020DF4300207300E5EA
:1005D8008954F04401F589758CEA758AE8D2A9C274
:1005E8008C22C28C758CEA758AE8D28CB2903275EE
:1005F800C80075CBA975CA9AE4F530F531F534F51C
:1006080033F535F536F537F538F556F53BF53AF562
:1006180039F532753C04753D0A753E0CD2ADD2CA27
:1006280022C2CFC0E0C0D0053205330530E53070B6
:10063800020531E532B46442E4F5322006082007A9
:10064800172008268034D28C153CE53CB4002BC218
:100658008CC206753C048022D28C153DE53DB40061
:1006680019C28CC207753D0A8010B28C153EE53E52
:10067800B40007C28CC208753E0CE530B4E822E528
:1006880031B4031DB209753000753100053BE53BF7
:10069800B43C02D201053AE53AB43C05E4F53A0522
:1006A80039E533B4FA05D205E4F53330021F0534D1
:1006B80030030EE534B43315C203C2B7E4F5348011
:1006C8000CE534B4CC07D203D2B7E4F534D0D0D09B
:1006D800E032C20575F00712038B1206F875F000B8
:1006E80012038B12072F75F00112038B1207782261
:1006F800854743854844754500754600753F317503
:10070800403B7541037542001202E375431075447E
:1007180027754500754600120256853F528540539D
:100728008541548542552285524385534485544515
:100738008555461202567543FF7544037545007585
:1007480046001202E37543107544A875452975469D
:10075800001201C275436475440075450075460072
:100768001202E3853F4E85404F8541508542512214
:10077800855243855344855445855546120256751E
:1007880043FF7544037545007546001202E375433F
:10079800E875440375450075460012025675433ADC
:1007A80075440C7545007546001202E375432975BA
:1007B80044007545007546001202E3854E43854F97
:1007C800448550458551461201A17543647544001E
:1007D8007545007546001202E3853F5785405885E8
:1007E800415985425A1200DCC000A84A1203EFD0D2
:1007F80000C000A8491203EFD000740A1203DC8578
:10080800563F7540007541007542001200DCC0007B
:10081800A8491203EFD000740A1203DC22C2AF7594
:10082800965890000074FFF0759638E536F0A3E509
:1008380035F0A3E538F0A3E537F0A37455F0A374B9
:10084800AAF075961874FFF0759600D2AF227596C7
:1008580008900004E0B4551BA3E0B4AA1690000069
:10086800E0F536A3E0F535A3E0F538A3E0F53775F4
:1008780096002275369675352D7538E175371E75D3
:1008880096000208C375817F75C1001205D712054D
:10089800F7D2AF12034C1203BD120088C202C20382
:1008A800C2B7C204C201C205C206C207C208C20951
:1008B800C2A4C2A5C2A6C2A71208563005031206D2
:1008C800DAE556B40002800302095CC2A4C2A5C2DC
:1008D800A6C2A7C0E07401141200C1D0E0C083C052
:1008E80082C0E09004181200B4D0E0D082D083C057
:1008F800E07401141200BFD0E0C083C082C0E09051
:1009080004291200B4D0E0D082D083208020C00215
:100918007A32120039D0022080143080FD755601D9
:100928007401120083C0027A02120039D0022082B8
:1009380020C0027A32120039D0022082143082FD9F
:100948007556057401120083C0027A02120039D06C
:10095800020208C3E556B401028003020A48D20421
:1009680020090AD2A4D2A5D2A6D2A78008C2A4C2BE
:10097800A5C2A6C2A7C0E07401141200C1D0E0C08D
:1009880083C082C0E090043A1200B4D0E0D082D094
:1009980083C0E07401141200BFD0E085353F754074
:1009A800007541007542001200DCC000C0E07420F0
:1009B80012007EA84AE8540F443012007ED0E0D0DE
:1009C80000C000A8491200C6D000C0E07405141287
:1009D80000BFD0E0C083C082C0E09005D41200B44C
:1009E800D0E0D082D083208217C0027A3212003938
:1009F800D00220820BC0027A64120039D002053579
:100A0800208417C0027A32120039D00220840BC029
:100A1800027A64120039D0021535208020C0027A8B
:100A280032120039D0022080143080FD75560274CD
:100A380001120083C0027A02120039D0020208C3F0
:100A4800E556B402028003020B3220090AD2A4D26E
:100A5800A5D2A6D2A78008C2A4C2A5C2A6C2A7C012
:100A6800E07401141200C1D0E0C083C082C0E090DD
:100A7800044B1200B4D0E0D082D083C0E0740114DB
:100A88001200BFD0E085363F7540007541007542C1
:100A9800001200DCC000C0E0742012007EA84AE802
:100AA800540F443012007ED0E0D000C000A8491294
:100AB80000C6D000C0E07405141200BFD0E0C083A7
:100AC800C082C0E09005D01200B4D0E0D082D083BC
:100AD800208217C0027A32120039D00220820BC05D
:100AE800027A64120039D0020536208417C0027ACF
:100AF80032120039D00220840BC0027A6412003905
:100B0800D0021536208020C0027A32120039D00275
:100B18002080143080FD7556037401120083C002D2
:100B28007A02120039D0020208C3E556B4030280E3
:100B380003020C2720090AD2A4D2A5D2A6D2A780E4
:100B480008C2A4C2A5C2A6C2A7C0E07401141200BC
:100B5800C1D0E0C083C082C0E090045C1200B4D071
:100B6800E0D082D083C0E07401141200BFD0E085C9
:100B7800373F7540007541007542001200DCC00027
:100B8800C0E0742012007EA84AE8540F44301200D6
:100B98007ED0E0D000C000A8491200C6D000C0E056
:100BA8007405141200BFD0E0C083C082C0E0900575
:100BB800D41200B4D0E0D082D083208217C0027A49
:100BC80032120039D00220820BC0027A6412003936
:100BD800D0020537208417C0027A32120039D002B9
:100BE80020840BC0027A64120039D0021537E53729
:100BF800C314942D400375372D208020C0027A320B
:100C0800120039D0022080143080FD75560474011A
:100C1800120083C0027A02120039D0020208C3E52A
:100C280056B404028003020D1C20090AD2A4D2A5DE
:100C3800D2A6D2A78008C2A4C2A5C2A6C2A7C0E0F5
:100C48007401141200C1D0E0C083C082C0E09004D7
:100C58006D1200B4D0E0D082D083C0E074011412C9
:100C680000BFD0E085383F754000754100754200EF
:100C78001200DCC000C0E0742012007EA84AE854CC
:100C88000F443012007ED0E0D000C000A849120006
:100C9800C6D000C0E07405141200BFD0E0C083C005
:100CA80082C0E09005D01200B4D0E0D082D083207A
:100CB8008217C0027A32120039D00220820BC00299
:100CC8007A64120039D0020538208417C0027A32BB
:100CD800120039D00220840BC0027A64120039D085
:100CE800021538E538C31494EB40037538EB2080BF
:100CF80020C0027A32120039D0022080143080FDE0
:100D08007556007401120083C0027A02120039D0AD
:100D1800020208C3E556B405028003020E79D2A484
:100D2800D2A5D2A6D2A7300461120825C204C0E019
:100D38007401141200C1D0E0C083C082C0E09004E6
:100D4800C21200B4D0E0D082D083C0E07401141283
:100D580000BFD0E0C083C082C0E09004E41200B4B9
:100D6800D0E0D082D083C0027AFA120039D002C013
:100D7800027AFA120039D002C0027AFA120039D087
:100D880002C0027AFA120039D002E557C3953640FC
:100D98005FC0E07401141200C1D0E0C083C082C0FB
:100DA800E09004A01200B4D0E0D082D083C0E074F8
:100DB80001141200BFD0E0C083C082C0E09004B12B
:100DC8001200B4D0E0D082D083C0027AFA1200397F
:100DD800D002C0027AFA120039D002C0027AFA129E
:100DE8000039D002C0027AFA120039D0020208C3D0
:100DF800C0E07401141200C1D0E0C083C082C0E01A
:100E080090047E1200B4D0E0D082D083C0E0740198
:100E1800141200BFD0E0C083C082C0E090048F12DB
:100E280000B4D0E0D082D083208420C0027A32126D
:100E38000039D0022084143084FD755600740112E4
:100E48000083C0027A02120039D002208220C00238
:100E58007A32120039D0022082143082FD7556068B
:100E68007401120083C0027A02120039D00202080B
:100E7800C3E556B406028003020E94C201E4F53AB3
:100E8800F539F53B75560AD2060208C3E556B40A89
:100E9800028003020FB420090AD2A4D2A5D2A6D296
:100EA800A78008D2A4C2A5D2A6D2A7208020C002BB
:100EB8007A32120039D0022080143080FD75561124
:100EC8007401120083C0027A02120039D002C202F1
:100ED800D2B7C0E07401141200C1D0E0C083C08250
:100EE800C0E09005261200B4D0E0D082D083C0E0E4
:100EF8007401141200BFD0E085573F75400075415A
:100F0800007542001200DCC000C0E0742012007EB0
:100F1800A84AE8540F443012007ED0E0D000C00048
:100F2800A8491200C6D000C0E07405141200BFD052
:100F3800E0C083C082C0E09005D01200B4D0E0D0F9
:100F480082D083C0E0740B141200BFD0E085393F13
:100F58007540007541007542001200DCC000A849C8
:100F68001200C6D000C0E0743A12007ED0E0853A84
:100F78003F7540007541007542001200DCC000A8B2
:100F8800491200C6D000300111C201E557C3B4327E
:100F9800005007755610D207800FE536C395575095
:100FA8000875560BE4F53BD2060208C3E556B40BA8
:100FB8000280030210ABC2A5208020C0027A321240
:100FC8000039D0022080143080FD7556117401124A
:100FD8000083C0027A02120039D002D202C0E07443
:100FE80001141200C1D0E0C083C082C0E090053770
:100FF8001200B4D0E0D082D083C0E0740114120093
:10100800BFD0E085573F754000754100754200121A
:1010180000DCC000C0E0742012007EA84AE8540F2B
:10102800443012007ED0E0D000C000A8491200C6AB
:10103800D000C0E07405141200BFD0E0C083C082A5
:10104800C0E09005D01200B4D0E0D082D083C0E0D8
:10105800740B141200BFD0E085393F75400075410C
:10106800007542001200DCC000A8491200C6D0007A
:10107800C0E0743A12007ED0E0853A3F75400075B2
:1010880041007542001200DCC000A8491200C6D019
:1010980000E53BC39535400875560CE4F53BD20690
:1010A8000208C3E556B40C0280030211B720090AEE
:1010B800D2A4D2A5D2A6D2A78008D2A4D2A5C2A66D
:1010C800D2A7208020C0027A32120039D0022080B4
:1010D800143080FD7556117401120083C0027A0223
:1010E800120039D002C202D2B7C0E0740114120053
:1010F800C1D0E0C083C082C0E09005151200B4D012
:10110800E0D082D083C0E07401141200BFD0E08523
:10111800573F7540007541007542001200DCC00061
:10112800C0E0742012007EA84AE8540F4430120030
:101138007ED0E0D000C000A8491200C6D000C0E0B0
:101148007405141200BFD0E0C083C082C0E09005CF
:10115800D01200B4D0E0D082D083C0E0740B141257
:1011680000BFD0E085393F754000754100754200E9
:101178001200DCC000A8491200C6D000C0E0743AD2
:1011880012007ED0E0853A3F7540007541007542F7
:10119800001200DCC000A8491200C6D000E538C320
:1011A8009557500875560DD206E4F53B0208C3E57D
:1011B80056B40D028003021313C2A6208020C00279
:1011C8007A32120039D0022080143080FD75561111
:1011D8007401120083C0027A02120039D002D202CE
:1011E800C0E07401141200C1D0E0C083C082C0E026
:1011F8009005481200B4D0E0D082D083C0E07401DA
:10120800141200BFD0E085573F7540007541007546
:1012180042001200DCC000C0E0742012007EA84A20
:10122800E8540F443012007ED0E0D000C000A84936
:101238001200C6D000C0E07405141200BFD0E0C090
:1012480083C082C0E09005D01200B4D0E0D082D034
:1012580083C0E0740B141200BFD0E085393F75409D
:10126800007541007542001200DCC000A849120058
:10127800C6D000C0E0743A12007ED0E0853A3F75CF
:1012880040007541007542001200DCC000A84912F8
:1012980000C6D000E557C394EB405EC0E07401146B
:1012A8001200C1D0E0C083C082C0E09005AE120039
:1012B800B4D0E0D082D083C0E07401141200BFD053
:1012C800E0C083C082C0E09005BF1200B4D0E0D077
:1012D80082D083D206C0027AFA120039D002C00244
:1012E8007AFA120039D002C0027AFA120039D00212
:1012F800C0027AFA120039D002E537C3953B50088C
:1013080075560EE4F53BD2070208C3E556B40E0243
:101318008003021411C2A7D2A4D2A5D2A62080208D
:10132800C0027A32120039D0022080143080FD7554
:1013380056117401120083C0027A02120039D002D9
:10134800C202C203C2B7C0E07401141200C1D0E0E7
:10135800C083C082C0E09005591200B4D0E0D082AA
:10136800D083C0E07401141200BFD0E085573F75E8
:1013780040007541007542001200DCC000C0E074F6
:101388002012007EA84AE8540F443012007ED0E0B4
:10139800D000C000A8491200C6D000C0E0740514EF
:1013A8001200BFD0E0C083C082C0E09005D0120018
:1013B800B4D0E0D082D083C0E0740B141200BFD048
:1013C800E085393F7540007541007542001200DC28
:1013D800C000A8491200C6D000C0E0743A12007ECE
:1013E800D0E0853A3F754000754100754200120013
:1013F800DCC000A8491200C6D000E557C3943C5091
:1014080005D20875560F0208C3E556B40F028003CB
:10141800021481C2A4D2A5D2A6D2A7C0E074011436
:101428001200C1D0E0C083C082C0E090056A1200FB
:10143800B4D0E0D082D083C0E07401141200BFD0D1
:10144800E0C083C082C0E090059D1200B4D0E0D017
:1014580082D083208420C0027A32120039D0022040
:1014680084143084FD7556007401120083C0027A1A
:1014780002120039D0020208C3E556B410028003F4
:101488000214F7C2A6D2A4D2A5D2A7C202C203C22E
:10149800B7C0E07401141200C1D0E0C083C082C09C
:1014A800E090057B1200B4D0E0D082D083C0E07415
:1014B80001141200BFD0E0C083C082C0E090059D37
:1014C8001200B4D0E0D082D083208420C0027A32C7
:1014D800120039D0022084143084FD75560074013E
:1014E800120083C0027A02120039D0020208C3C275
:1014F80002C203C2B7C2A6D2A4D2A5D2A7C0E074C2
:1015080001141200C1D0E0C083C082C0E090058CF5
:101518001200B4D0E0D082D083C0E074011412006D
:10152800BFD0E0C083C082C0E090059D1200B4D057
:10153800E0D082D083208420C0027A32120039D0D1
:10154800022084143084FD7556007401120083C093
:0B155800027A02120039D0020208C320
:00000001FF
