:030000000204A94E
:03002B000204616B
:10002E0050574D204953204F4E2020202020200095
:10003E0050574D204953204F464620202020200067
:01004E000AA7
:10004F00C00078B10000D8FCD00022C000C00179F8
:10005F002D78A6D8FED9FADAF6D001D00022D294A4
:10006F0012004FC29422A2E792B5A2E692B4A2E583
:10007F0092B3A2E492B212006D12004FA2E392B5B6
:10008F00A2E292B4A2E192B3A2E092B212006D2268
:10009F00D292020075C292020075C294C293743359
:1000AF001200A474331200A474321200A474281224
:1000BF0000A4740C1200A474011200A4C0027A02EE
:1000CF0012005AD00222E493600612009FA380F61A
:1000DF0022444044800200A4C0E0E8C4540F4430DE
:0E00EF0012009FE8540F443012009FD0E02210
:1000FD00C0E0C0D0C000C001C002E4F541F542F53A
:10010D0043F544F5457A20E53CA2E779047839E6D4
:10011D0033F608D9FA79057841E636D4F608D9F9D7
:10012D00DAE5D002D001D000D0D0D0E022C0E0C0BE
:10013D00D0C000C001C002E4F541F542F543F544DD
:10014D00F5457A20E53CA2E779047839E633F608DF
:10015D00D9FA79057841C0D0E6243320E70224D0BE
:10016D0020E30224FDD0D033F608D9EADAD6D00246
:10017D00D001D000D0D0D0E022C0E0C0D0C000C0AF
:10018D0001C0027A207905C37845E613C0D030E767
:10019D000224D030E30224FDF618D0D0D9EC790436
:1001AD00783CE613F618D9FADADBD002D001D0008C
:1001BD00D0D0D0E022C0E0C0D0E539253DF539E5FD
:1001CD003A353EF53AE53B353FF53BE53C3540F5F7
:1001DD003CD0D0D0E022C0E0C0D0C3E539953DF58C
:1001ED0039E53A953EF53AE53B953FF53BE53C95CE
:1001FD0040F53CD0D0D0E022C0E0C0D0C3E5399569
:10020D003DE53A953EE53B953FE53C95409200D066
:10021D00D0D0E022C0E0C0D0C3E53D9539E53E9594
:10022D003AE53F953BE540953C9200D0D0D0E02299
:10023D00C0E0C0D0C200C3E53D95397014E53E95D0
:10024D003A700EE53F953B7008E540953C7002D243
:10025D0000D0D0D0E02212023D2000030202212264
:10026D0012023D20000302020522C0E0C0F0C0D002
:10027D00C000C001C002C003E539853DF0A4F8A956
:10028D00F0E53A853DF0A429F9E435F0FAE5398534
:10029D003EF0A429F9E5F03AFAE433FBE53B853D60
:1002AD00F0A42AFAE5F03BFBE53A853EF0A42AFAE4
:1002BD00E5F03BFBE539853FF0A42AFAE5F03BFB81
:1002CD00E53C853DF0A42BFBE53B853EF0A42BFBE7
:1002DD00E53A853FF0A42BFBE5398540F0A42BFBD7
:1002ED008B3C8A3B893A8839D003D002D001D000AB
:1002FD00D0D0D0F0D0E022C0E0C0D0C000C001C04E
:10030D0002C003C0047C20E4F8F9FAFBC3E53933DD
:10031D00F539E53A33F53AE53B33F53BE53C33F555
:10032D003CE833F8E933F9EA33FAEB33FBC3E895EC
:10033D003DE9953EEA953FEB95404013E8953DF834
:10034D00E9953EF9EA953FFAEB9540FB433901DC1F
:10035D00BBD004D003D002D001D000D0D0D0E02249
:10036D00D2A2C2A322C0E079007A08E833F892A1A4
:10037D00D2A3A2A2E933F9C2A3DAF0D0E022C2A03F
:10038D007801120372E5F0C454F0D2E7F81203724B
:0F039D00E95403F53878551203728937D2A0223C
:1003AC0079DE78A6D8FED9FAC28E53890F438920FC
:1003BC00438780758DF4758BF4D28E7598522230EC
:1003CC0099FDC299F59922E49360061203CBA380A0
:1003DC00F622C0E0E8C4540F44301203CBE8540FAB
:1003EC0044301203CBD0E022C000A8421203DED06E
:1003FC0000C000A8411203DED00022753900753A06
:10040C0000753B00753C007D6412038B75400075D4
:10041C003F0085383E85373D1201C2DDEC753D64E9
:10042C00753E00753F0075400012030422E58954A7
:10043C00F04401F589758CEA758AE8D2A9C28C2240
:10044C0075C80075CBA975CA9AE4F530F531F5324B
:10045C00D2ADD2CA22C2CFC0E0C0D00530E53070D8
:10046C00110531E530B4E80AE531B40305E4F530A3
:10047C00F5313001230532300210E532B41419C2C3
:10048C0002C2B7D2B6E4F532800EE532B45009D2CE
:10049C0002D2B7C2B6E4F532D0D0D0E03275817F4B
:1004AC0075C10012043912044CD2AF12036D120341
:1004BC00AC1200A9C201C202C2B71204DA120513AF
:1004CC0012057BC0027AFA12005AD00280EC20C5C9
:1004DC0035C0027A3212005AD00220C529C201B2AC
:1004EC00B7C0E07401141200E0D0E0C083C082C039
:1004FC00E090003E1200D5D0E0D082D083C0027ACA
:10050C00C812005AD00222208364C0027A32120030
:10051C005AD0022083583083FD200129D201C0E03B
:10052C007401141200E0D0E0C083C082C0E09000DF
:10053C002E1200D5D0E0D082D083C0027AC812002F
:10054C005AD0028029C201C2B7C0E0740114120053
:10055C00E0D0E0C083C082C0E090003E1200D5D055
:10056C00E0D082D083C0027AC812005AD002227521
:10057C00F00712040712059775F000120407120514
:10058C00CE75F0011204071206172285373D853807
:10059C003E753F00754000753931753A3B753B032C
:1005AC00753C00120304753D10753E27753F0075B0
:1005BC004000120277853933853A34853B35853CCA
:1005CC00362285333D85343E85353F8536401202D3
:1005DC0077753DFF753E03753F00754000120304AF
:1005EC00753D10753EA8753F297540001201E375E5
:1005FC003D64753E00753F0075400012030485395B
:10060C0046853A47853B48853C492285333D8534B0
:10061C003E85353F853640120277753DFF753E03AA
:10062C00753F00754000120304753D64753E0075FE
:10063C003F00754000120277753DC6753E01753F4F
:10064C0000754000120304753D29753E00753F008E
:10065C0075400012030485463D85473E85483F851D
:10066C0049401201C21200FDC000A8431203DED0A3
:10067C0000C000A8421203DED000740A1203CBC0E3
:10068C00E07401141200E2D0E0C000A8451200E7AB
:10069C00D000C000A8441200E7D000C000A843124C
:1006AC0000E7D000C000A8421200E7D000C000A8AC
:0706BC00411200E7D000220B
:00000001FF
