:030000000203BC3C
:10000300C00078B10000D8FCD00022C000C0017944
:100013002D78A6D8FED9FADAF6D001D00022D294F0
:10002300120003C29422A2E792B5A2E692B4A2E51B
:1000330092B3A2E492B2120021120003A2E392B59A
:10004300A2E292B4A2E192B3A2E092B21200212200
:10005300D292020029C292020029C294C29374333D
:100063001200587433120058743212005874281254
:100073000058740C1200587401120058C0027A021E
:1000830012000ED00222E4936006120053A380F6FE
:100093002244404480020058C0E0E8C4540F443076
:0E00A300120053E8540F4430120053D0E022F4
:1000B100C0E0C0D0C000C001C002E4F544F545F580
:1000C10046F547F5487A20E53BA2E779047838E61A
:1000D10033F608D9FA79057844E636D4F608D9F921
:1000E100DAE5D002D001D000D0D0D0E022C0E0C00B
:1000F100D0C000C001C002E4F544F545F546F5471E
:10010100F5487A20E53BA2E779047838E633F6082A
:10011100D9FA79057844C0D0E6243320E70224D007
:1001210020E30224FDD0D033F608D9EADAD6D00292
:10013100D001D000D0D0D0E022C0E0C0D0C000C0FB
:1001410001C0027A207905C37848E613C0D030E7B0
:100151000224D030E30224FDF618D0D0D9EC790482
:10016100783BE613F618D9FADADBD002D001D000D9
:10017100D0D0D0E022C0E0C0D0E538253CF538E54C
:1001810039353DF539E53A353EF53AE53B353FF54B
:100191003BD0D0D0E022C0E0C0D0C3E538953CF5DB
:1001A10038E539953DF539E53A953EF53AE53B9522
:1001B1003FF53BD0D0D0E022C0E0C0D0C3E53895B8
:1001C1003CE539953DE53A953EE53B953F9200D0BA
:1001D100D0D0E022C0E0C0D0C3E53C9538E53D95E4
:1001E10039E53E953AE53F953B9200D0D0D0E022EB
:1001F100C0E0C0D0C200C3E53C95387014E53D9520
:1002010039700EE53E953A7008E53F953B7002D294
:1002110000D0D0D0E0221201F12000030201D5224A
:100221001201F12000030201B922C0E0C0F0C0D0E8
:10023100C000C001C002C003E538853CF0A4F8A9A4
:10024100F0E539853CF0A429F9E435F0FAE5388583
:100251003DF0A429F9E5F03AFAE433FBE53A853CAF
:10026100F0A42AFAE5F03BFBE539853DF0A42AFA32
:10027100E5F03BFBE538853EF0A42AFAE5F03BFBCF
:10028100E53B853CF0A42BFBE53A853DF0A42BFB37
:10029100E539853EF0A42BFBE538853FF0A42BFB27
:1002A1008B3B8A3A89398838D003D002D001D000FB
:1002B100D0D0D0F0D0E022C0E0C0D0C000C001C09A
:1002C10002C003C0047C20E4F8F9FAFBC3E538332B
:1002D100F538E53933F539E53A33F53AE53B33F5A8
:1002E1003BE833F8E933F9EA33FAEB33FBC3E8953A
:1002F1003CE9953DEA953EEB953F4013E8953CF886
:10030100E9953DF9EA953EFAEB953FFB433801DC6F
:10031100BBD004D003D002D001D000D0D0D0E02295
:10032100D2A2C2A322C0E079007A08E833F892A1F0
:10033100D2A3A2A2E933F9C2A3DAF0D0E022C2A08B
:100341007801120326E5F0C454F0D2E7F81203262F
:0F035100E95403F53778551203268936D2A022D6
:1003600079DE78A6D8FED9FAC28E53890F43892048
:10037000438780758DF4758BF4D28E759852223038
:1003800099FDC299F59922E493600612037FA38038
:10039000F622C0E0E8C4540F443012037FE8540F43
:1003A000443012037FD0E022C000A845120392D04F
:0B03B00000C000A844120392D00022FD
:1003BB000A75817F75C100D2AF120321120360123F
:1003CB00005DE475400075410075420075430012F5
:1003DB0003ED1203ED1203ED1203ED120520D2B75C
:1003EB0080E075F00712033F12041275F000120340
:1003FB003F12044975F00112033F12049EC0027AAA
:10040B007D12000ED0022285363C85373D753E00AD
:10041B00753F0075383175393B753A03753B0012E2
:10042B0002B8753C10753D27753E00753F001202F2
:10043B002B853830853931853A32853B33228536E9
:10044B0038853739753A00753B0085303C85313D31
:10045B0085323E85333F12022B753CFF753D03758C
:10046B003E00753F001202B8753C10753DA8753EF5
:10047B0029753F00120197753C64753D00753E0070
:10048B00753F001202B885384985394A853A4B8544
:10049B003B4C22853638853739753A00753B0085DC
:1004AB00303C85313D85323E85333F12022B753C06
:1004BB00FF753D03753E00753F001202B8753C6435
:1004CB00753D00753E00753F0012022B753CC675DD
:1004DB003D01753E00753F001202B8753C29753D14
:1004EB0000753E00753F001202B885493C854A3DB8
:1004FB00854B3E854C3F12017685403C85413D85C1
:10050B00423E85433F120176853840853941853A15
:10051B0042853B432285403885413985423A8543A4
:10052B003B753C04753D00753E00753F001202B8EB
:10053B001200B1C000A846120392D000C000A8451B
:10054B00120392D000740A12037FC0E074011412DC
:10055B000096D0E0C000A84812009BD000C000A8B5
:10056B004712009BD000C000A84612009BD000C0D1
:10057B0000A84512009BD000C000A84412009BD0DD
:02058B0000224C
:00000001FF
