:030000000203AB4D
:10000300C00078B10000D8FCD00022C000C0017944
:100013002D78A6D8FED9FADAF6D001D00022D294F0
:10002300120003C29422A2E792B5A2E692B4A2E51B
:1000330092B3A2E492B2120021120003A2E392B59A
:10004300A2E292B4A2E192B3A2E092B21200212200
:10005300D292020029C292020029C294C29374333D
:100063001200587433120058743212005874281254
:100073000058740C1200587401120058C0027A021E
:1000830012000ED00222E4936006120053A380F6FE
:100093002244404480020058C0E0E8C4540F443076
:0E00A300120053E8540F4430120053D0E022F4
:1000B100C0E0C0D0C000C001C002E4F540F541F588
:1000C10042F543F5447A20E53BA2E779047838E626
:1000D10033F608D9FA79057840E636D4F608D9F925
:1000E100DAE5D002D001D000D0D0D0E022C0E0C00B
:1000F100D0C000C001C002E4F540F541F542F5432E
:10010100F5447A20E53BA2E779047838E633F6082E
:10011100D9FA79057840C0D0E6243320E70224D00B
:1001210020E30224FDD0D033F608D9EADAD6D00292
:10013100D001D000D0D0D0E022C0E0C0D0C000C0FB
:1001410001C0027A207905C37844E613C0D030E7B4
:100151000224D030E30224FDF618D0D0D9EC790482
:10016100783BE613F618D9FADADBD002D001D000D9
:10017100D0D0D0E022C0E0C0D0E538253CF538E54C
:1001810039353DF539E53A353EF53AE53B353FF54B
:100191003BD0D0D0E022C0E0C0D0C3E538953CF5DB
:1001A10038E539953DF539E53A953EF53AE53B9522
:1001B1003FF53BD0D0D0E022C0E0C0D0C3E53895B8
:1001C1003CE539953DE53A953EE53B953F9200D0BA
:1001D100D0D0E022C0E0C0D0C3E53C9538E53D95E4
:1001E10039E53E953AE53F953B9200D0D0D0E022EB
:1001F100C0E0C0D0C200C3E53C95387014E53D9520
:1002010039700EE53E953A7008E53F953B7002D294
:1002110000D0D0D0E0221201F12000030201D5224A
:100221001201F12000030201B922C0E0C0F0C0D0E8
:10023100C000C001C002C003E538853CF0A4F8A9A4
:10024100F0E539853CF0A429F9E435F0FAE5388583
:100251003DF0A429F9E5F03AFAE433FBE53A853CAF
:10026100F0A42AFAE5F03BFBE539853DF0A42AFA32
:10027100E5F03BFBE538853EF0A42AFAE5F03BFBCF
:10028100E53B853CF0A42BFBE53A853DF0A42BFB37
:10029100E539853EF0A42BFBE538853FF0A42BFB27
:1002A1008B3B8A3A89398838D003D002D001D000FB
:1002B100D0D0D0F0D0E022C0E0C0D0C000C001C09A
:1002C10002C003C0047C20E4F8F9FAFBC3E538332B
:1002D100F538E53933F539E53A33F53AE53B33F5A8
:1002E1003BE833F8E933F9EA33FAEB33FBC3E8953A
:1002F1003CE9953DEA953EEB953F4013E8953CF886
:10030100E9953DF9EA953EFAEB953FFB433801DC6F
:10031100BBD004D003D002D001D000D0D0D0E02295
:100321000AC2A07801120360E5F0C454F0D2E7F8E4
:10033100120360E95403F53778551203608936D208
:10034100A022C0E0E8C4540F4430120398E8540FCF
:100351004430120398D0E022D2A2C2A3D2A022C07C
:10036100E079007A08E833F892A1D2A3A2A2E93396
:10037100F9C2A3DAF0D0E02279DE78A6D8FED9FA64
:10038100C28E53890F438920438780758DF4758B05
:10039100F4D28E759852223099FDC299F59922E4D2
:1003A100936006120398A380F62275817F75C100C0
:1003B100D2AF12035912037912005D75F0071203CF
:1003C100221203ED75F00012032212042475F001CC
:1003D100120322120479C0027AFA12000ED002C06E
:1003E100027AFA12000ED002D2B780CF753F0075A3
:1003F1003E0085373D85363C75383175393B753A58
:1004010003753B001202B8753C10753D27753E001F
:10041100753F0012022B853B33853A328539318590
:10042100383022753B00753A008537398536388575
:10043100333F85323E85313D85303C12022B753C80
:10044100FF753D03753E00753F001202B8753C1003
:10045100753DA8753E29753F00120197753C64757D
:100461003D00753E00753F001202B8853B48853A54
:100471004785394685384522753B00753A008537F1
:100481003985363885333F85323E85313D85303C6F
:1004910012022B753CFF753D03753E00753F00123E
:1004A10002B8753C64753D00753E00753F0012024F
:1004B1002B753CC6753D01753E00753F001202B8B3
:1004C100753C29753D00753E00753F001202B885E7
:1004D100483F85473E85463D85453C1201761200E1
:1004E100B1C000A841120343D000740A120398C09E
:1004F100E0740114120096D0E0C000A84412009BE1
:10050100D000C000A84312009BD000C000A8421236
:10051100009BD000C000A84112009BD000C000A8E1
:070521004012009BD00022F4
:00000001FF
