:1000000002002E00000000000000000203E0E4F502
:1000100009F50A750B00D200C201220000000000A1
:1000200000000000000000000000000204B4758120
:100030003F1204D2E582600302009A780079007AC8
:10004000007B007C007D00EC4D601C88828983E48D
:1000500093A3A882A9838A828B83F0A3AA82AB830D
:100060001CBCFFE31D80E07582007583007C007D71
:1000700000EC4D600AE4F0A31CBCFFF51D80F27596
:1000800082007583007C007D00EC4D600AE4F0A3E3
:100090001CBCFFF51D80F212000E12011980FE4CEF
:1000A000434420342D62697420746573743A00539C
:1000B0006574207370656564002564007370656500
:1000C000643D25640025780053656E7421005365F6
:1000D0006C656374205475726E005475726E696E2F
:1000E00067207269676874005475726E696E672064
:1000F0006C6566740073746F70206F7220676F0098
:1001000053746F7070656400476F696E67003C4E92
:100110004F20464C4F41543E00E4F50DF50EFAC019
:10012000021205F6751F01D20290009F75F0801231
:100130000628D002E50D450E60030202A8751F01D6
:10014000D2029000AF75F080C002120628D002EAF9
:10015000FB3395E0FCC002C003C00474B9C0E07476
:1001600000C0E07480C0E0740FC0E07400C0E074B0
:1001700040C0E0120735E58124F8F581751F02D2F1
:100180000290000F75F040120628D002209575905D
:100190000032C002120564D00230950302025EC331
:1001A000EA648094E440047A0080010AEAFB339513
:1001B000E0FCC002C003C004C003C00474B9C0E0C6
:1001C0007400C0E07480C0E0740FC0E07400C0E050
:1001D0007440C0E0120735E58124F8F581751F02EF
:1001E000D20290000F75F04012062874BCC0E07473
:1001F00000C0E07480C0E01206C5E58124FBF581F3
:10020000D002805A209657900032C002120564D066
:100210000220964AC3EA648094E440047A00800194
:100220001AEAFB3395E0FCC002C003C00474B9C0F5
:10023000E07400C0E07480C0E0740FC0E07400C0DF
:10024000E07440C0E0120735E58124F8F581751FA0
:1002500002D20290000F75F040120628D0022090C2
:1002600047900032C002120564D00220903A3090CC
:10027000FD8A0CAB0CE50C3395E0FCC002C003C05A
:100280000474C5C0E07400C0E07480C0E01206C50C
:10029000E58124FBF581751F02D2029000C875F03C
:1002A00080120628D002D28C7401B50D06E4B50E7A
:1002B000028003020337751F01D2029000CE75F051
:1002C00080C002120628D002209545900032C0025C
:1002D000120564D002209538750C72751F02D20287
:1002E0009000DA75F080C002120628AB0CE50C33E2
:1002F00095E0FCC003C00474B9C0E07400C0E074B1
:1003000080C0E01206C5E58124FBF581D002D28CC5
:10031000209624900032C002120564D00220961765
:10032000750C6C751F02D2029000E875F080C00257
:10033000120628D002D28C7402B50D06E4B50E0266
:1003400080028063751F01D2029000F575F080C0B5
:1003500002120628D002209227900032C002120515
:1003600064D00220921A3092FD750C73751F02D270
:100370000290010075F080C002120628D002D28CD3
:10038000209324900032C002120564D002209317FB
:10039000750C67751F02D20290010875F080C002CB
:1003A000120628D002D28C30910302013490003220
:1003B000C002120564D002309103020134C3E50D7E
:1003C0009403E50E648094804008E4F50DF50E0278
:1003D00001347401250DF50DE4350EF50E020134DE
:1003E000C0E0C082C083C002C0D075D000C0BF755D
:1003F000BF00758C44758A8074012509F509E435C0
:100400000AF50A740AB50906E4B50A028003020473
:10041000A7E4F509F50AE50BFA24F6500302049364
:10042000EA2A2A900427730204450204490204526E
:1004300002045B02046402046D02047602047F027B
:100440000488020491C200804A850CE0A2E0920078
:100450008041850CE0A2E192008038850CE0A2E2A8
:100460009200802F850CE0A2E392008026850CE0AC
:10047000A2E49200801D850CE0A2E5920080148524
:100480000CE0A2E69200800B850CE0A2E7920080CF
:1004900002D2007409B50B09750B00C28CC2018031
:1004A00002050BA2009297D0BFD0D0D002D083D04B
:1004B00082D0E032C0D075D000C0BF75BF00C2CFBF
:1004C000B2A0300006A2A092A18002C2A1D0BFD0EB
:1004D000D03253D9BF75FF8075EF0643A90343B2ED
:1004E0000343A41043A5DFE5A675A6FF75E10175DA
:1004F000E240758D30538EF4438E08858D8B538981
:100500000F438920D28E759852C28CC28D438E04BF
:100510005389F0438901758C44758A80D2A975C8C6
:1005200000438E1075CA2475CBFA75CCFF75CDFFCC
:10053000D2ADD2CAD2AF75820022AA82438E407554
:1005400092D07593FF8592948593957591047B0065
:10055000C3EB9A500BE59130E7FB53917F0B80F092
:1005600075910022AA82AB837C007D00C3EC9AEDDA
:100570009B502B7E00BE0400501D7582FAC002C045
:1005800003C004C005C00612053AD006D005D00449
:10059000D003D0020E80DE0CBC00D10D80CE22D262
:1005A000A675822812053AC2A622AA828AE0A2E78C
:1005B00092A2A2E692A3A2E592A4A2E492A5C0020E
:1005C00012059F75822812053AD0028AE0A2E392B2
:1005D000A2A2E292A3A2E192A4A2E092A502059FA8
:1005E000D2A71205AA900002020564C2A71205AAAA
:1005F000900005020564C2A690001412056475827D
:10060000331205EB7582331205EB7582321205EB5E
:100610007582281205EB75820C1205EB75820112AA
:1006200005EB900014020564AA82AB83ACF074025F
:10063000B51F047DC080027D808D82C002C003C0D2
:10064000041205EB900005120564D004D003D0021B
:100650007D007E00ED2AFFEE3BF88C018F828883BF
:1006600089F012077BFF60208F82C002C003C004A4
:10067000C005C0061205E0D006D005D004D003D0D6
:10068000020DBD00CF0E80CC3002248D028E03C33C
:10069000EA9410EB648094805015758220C002C0EB
:1006A000031205E0D003D0020ABA00E30B80E02277
:1006B000020DB785823285833385F03485233590EA
:1006C00006B0020820C008858108E50824FBF5353E
:1006D000E50824FBF886320886330886349006B095
:1006E000120820D00822AA82AB18AC19AD1A8B824E
:1006F0008C838DF0EA120DCC0518E4B518020519AB
:100700002285821885831985F01A851B32851C3352
:10071000851D34851E359006E6120820AA82AB831B
:10072000AC18AD19AE1A8C828D838EF0E4120DCC0C
:100730008A828B8322C008858108E50824F8F53574
:10074000E50824FBF8861808861908861AE50824A7
:10075000F8F886320886330886349006E6120820B8
:10076000AA82AB83AC18AD19AE1A8C828D838EF041
:10077000E4120DCC8A828B83D0082220F71430F645
:10078000148883A88220F507E6A88375830022E2F7
:1007900080F7E49322E022AA8274A8C0E07407C024
:1007A000E0C024C0258A8222052BE4B52B02052C4B
:1007B00022AA8274302AFA24C6500A74072AFA3010
:1007C00003034302208A82020797E582FAC4540F8A
:1007D000F582C0021207B1D002740F5AF5820207E7
:1007E000B1AA26AB27AC28AD29AE2A753120EE2E52
:1007F000FEED235401FF4206EA2AFAEB33FBEC3309
:10080000FCED33FDC3EE952D4008EEC3952DFE4360
:100810000201D531D98A268B278C288D298E2A2250
:10082000858224858325E4F52BF52CAA32AB33ACE5
:10083000348A828B838CF012077BFD74012AF53297
:10084000E43BF5338C34EDFA7003020DB0BA2502A7
:100850008003020DA8C207C208C209C20AC20BC2A5
:100860000CC20DC20EC204C205C206752D00752E43
:1008700000752FFFAB32AC33AD348B828C838DF09F
:1008800012077BFAA3AB82AC838B328C338D34BAE4
:1008900025078A8212079780928A06BE3000402E72
:1008A0008A06EE24C6402774FFB52F13E52E75F097
:1008B0000AA4FEEA24D02EF52E70BFD20880BBE534
:1008C0002F75F00AA4FEEA24D02EF52F80ACBA2EA4
:1008D0000A74FFB52FA4752F00809F8A06BE6100A1
:1008E000400E8A06EE248540075302DFD2038002C1
:1008F000C203BA20028075BA230302097BBA2A0315
:10090000020980BA2B02805FBA2D028055BA4202DA
:10091000805FBA43030209C5BA4403020B00BA451B
:1009200003020B1ABA4603020B16BA4703020B1E48
:10093000BA4903020B00BA4C02803BBA4E03020BC9
:1009400022BA4F03020B07BA5003020A99BA5303A3
:100950000209E9BA5503020B0CBA5803020B110243
:100960000B4CD20702087AD20902087AD20A02088E
:100970007AD20C02087AD20D02087AD20E02087AD4
:1009800074FFB52F20300C0BE53514F88835862E12
:1009900002087AE53524FEF88835860608860718A9
:1009A0008E2E02087A300C0BE53514F88835862F28
:1009B00002087AE53524FEF8883586060886071889
:1009C0008E2F02087A300C0AE53514F88835860235
:1009D000800FE53524FEF888358603088604188BD9
:1009E000028A82120797020B51E53524FDF88835FB
:1009F000860308860408860518188B268C278D2800
:100A00008B828C838DF0120DE5AB82AC838B3074BE
:100A1000FFB52F0385302F20071DC3E530952E50DD
:100A200016E52EC39530F52EAB2E152EEB6008750E
:100A3000822012079780F18526828527838528F0FA
:100A400012077BFBFA6029AB2F152FC3E464808B60
:100A5000F063F08095F050188A82120797AB26ACAD
:100A600027AD280BBB00010C8B268C278D2880C757
:100A7000200703020B51C3E530952E4003020B51B2
:100A8000E52EC39530F52EAB2E152EEB7003020B21
:100A90005175822012079780EEE53524FDF88835E0
:100AA000860308860408860518188B268C278D284F
:100AB000E528FB30E7047A438013EB546060047A46
:100AC00050800AEB30E6047A4980027A588A82C064
:100AD0000212079775823A120797758230120797AC
:100AE000758278120797D002BA4902800BBA500279
:100AF00080068527821207CA8526821207CA80517E
:100B0000D20B752D0A804A752D088045752D0A80F7
:100B100040752D10803BD2048037D2058033D20639
:100B2000802FE53524FDF88835860308860408867D
:100B30000518188B268C278D288B828C838DF0E5E9
:100B40002B120DCCA3E52C120DCC80058A82120746
:100B50009720040620050330065AE53524FCF88862
:100B60003586030886040886050886061818188B3B
:100B7000268C278D288E2975260E752701752880CD
:100B800085263685273785283874012536FEE435D5
:100B900037FFAB388E268F278B28853682853783A3
:100BA0008538F012077BFBFA700302082B8A821249
:100BB000079780CCE52D700302082B7B3F300C2B70
:100BC000E53514F88835E6FC3395E0FDFEFF8C260C
:100BD0008D278E288F29200B5EAC267D007E007F1E
:100BE000008C268D278E288F29804C300D1FE535EF
:100BF00024FCF888358604088605088606088607DA
:100C00001818188C268D278E288F29802AE53524E0
:100C1000FEF88835860408860518ED3395E0FEFF5A
:100C20008C268D278E288F29200B0CAC26AD277E95
:100C3000007F008E288F29300E43E5264527452862
:100C4000452960397408B52D0C758230C003120730
:100C500097D00380287410B52D23758230C00312FD
:100C60000797D00330030C758278C003120797D022
:100C700003800A758258C003120797D003300B25F2
:100C8000AC26AD27AE28E529FF30E717C3E49CFC6E
:100C9000E49DFDE49EFEE49FFF8C268D278E288F29
:100CA000298002C20B753000D20F8B00752A00C05C
:100CB000001207E1D000200F0DE52AC4FCE6FD4C30
:100CC000F61888038002A62A0530B20FE5264527CC
:100CD0004528452970D68803E52E7003752E01201E
:100CE000081A200717E53004FCC3952E500E7582B4
:100CF00020C003120797D003152E80E9300B0E7524
:100D0000822DC003120797D003152E8024E5306092
:100D10002030090E75822BC003120797D003152EC1
:100D2000800F300A0C758220C003120797D003157C
:100D30002E20071EAC2E152EC3E5309C5027300800
:100D4000047C3080027C208C82C003120797D00381
:100D500080E2C3E530952E5009E52EC39530F52E7F
:100D60008003752E008B00AB301530EB6022B20F84
:100D7000200F0A08E6C4540FFB8B2A8007860374F1
:100D80000F5BF52A852A82C0001207B1D00080D7F8
:100D900020070302082BAB2E152EEB700302082B45
:100DA00075822012079780EE8A8212079702082B1D
:100DB000852B82852C8322AA82BA0A081099028088
:100DC000FB75990D10990280FB8A992220F710304B
:100DD000F6118883A88220F507F6A8837583002280
:100DE000F280F7F022AA82AB83ACF07D007E008A0D
:100DF000828B838CF012077BFFA3AA82AB83EF6008
:100E0000070DBD00EA0E80E78D828E832200000070
:00000001FF
