:1000000002002E000000000000000002027CE4F567
:1000100009F50A750B00D200C201220000000000A1
:100020000000000000000000000000020350758185
:100030003712036EE582600302009A780079007A35
:10004000007B007C007D00EC4D601C88828983E48D
:1000500093A3A882A9838A828B83F0A3AA82AB830D
:100060001CBCFFE31D80E07582007583007C007D71
:1000700000EC4D600AE4F0A31CBCFFF51D80F27596
:1000800082007583007C007D00EC4D600AE4F0A3E3
:100090001CBCFFF51D80F212000E1200E580FE4C24
:1000A000434420342D62697420746573743A0048A7
:1000B000656C6C6F2C20576F726C642100547261F8
:1000C0006E736D697474696E6720636F6D6D616EB8
:1000D00064203A202563200A0D003C4E4F20464CF8
:1000E0004F41543E00120494750D01D20290009FBE
:1000F00075F0801204C6750D02D2029000AF75F043
:10010000801204C62001FD209031900032120402BA
:10011000209028D201750C52AA0CE50C3395E0FB17
:10012000C002C00374BDC0E07400C0E07480C0E0D1
:10013000120563E58124FBF581D28C20913190007A
:1001400032120402209128D201750C4CAA0CE50C45
:100150003395E0FBC002C00374BDC0E07400C0E092
:100160007480C0E0120563E58124FBF581D28C2008
:100170009231900032120402209228D201750C5361
:10018000AA0CE50C3395E0FBC002C00374BDC0E0CF
:100190007400C0E07480C0E0120563E58124FBF5C3
:1001A00081D28C209331900032120402209328D205
:1001B00001750C43AA0CE50C3395E0FBC002C003AB
:1001C00074BDC0E07400C0E07480C0E0120563E557
:1001D0008124FBF581D28C209431900032120402EC
:1001E000209428D201750C4FAA0CE50C3395E0FB46
:1001F000C002C00374BDC0E07400C0E07480C0E001
:10020000120563E58124FBF581D28C2095319000A5
:1002100032120402209528D201750C55AA0CE50C67
:100220003395E0FBC002C00374BDC0E07400C0E0C1
:100230007480C0E0120563E58124FBF581D28C3027
:100240009603020104900032120402309603020168
:1002500004D201750C44AA0CE50C3395E0FBC002F6
:10026000C00374BDC0E07400C0E07480C0E012053B
:1002700063E58124FBF581D28C020104C0E0C082D9
:10028000C083C002C0D075D000C0BF75BF00758CE0
:10029000A2758A4074012509F509E4350AF50A7446
:1002A0000AB50906E4B50A028003020343E4F5092E
:1002B000F50AE50BFA24F6500302032FEA2A2A90E6
:1002C00002C3730202E10202E50202EE0202F70239
:1002D000030002030902031202031B0203240203A8
:1002E0002DC200804A850CE0A2E092008041850C7E
:1002F000E0A2E192008038850CE0A2E29200802F1B
:10030000850CE0A2E392008026850CE0A2E4920036
:10031000801D850CE0A2E592008014850CE0A2E629
:100320009200800B850CE0A2E792008002D200745C
:1003300009B50B09750B00C28CC2018002050BA226
:10034000009297D0BFD0D0D002D083D082D0E032FC
:10035000C0D075D000C0BF75BF00C2CFB2A0300002
:1003600006A2A092A18002C2A1D0BFD0D03253D9A0
:10037000BF75FF8075EF0643A90343B20343A41082
:10038000E5A575A5FFE5A675A6FF75E10175E24037
:10039000758D30538EF4438E08858D8B53890F43B2
:1003A0008920D28E759852C28CC28D438E04538997
:1003B000F0438901758CA2758A40D2A975C80043A3
:1003C0008E1075CA2475CBFA75CCFF75CDFFD2ADF2
:1003D000D2CAD2AF75820022AA82438E407592D0D3
:1003E0007593FF8592948593957591047B00C3EB7B
:1003F0009A500BE59130E7FB53917F0B80F075919C
:100400000022AA82AB837C007D00C3EC9AED9B5056
:100410002B7E00BE0400501D7582FAC002C003C0CE
:1004200004C005C0061203D8D006D005D004D003FE
:10043000D0020E80DE0CBC00D10D80CE22D2A6757B
:1004400082281203D8C2A622AA828AE0A2E792A238
:10045000A2E692A3A2E592A4A2E492A5C00212048D
:100460003D7582281203D8D0028AE0A2E392A2A2AC
:10047000E292A3A2E192A4A2E092A502043DD2A737
:10048000120448900002020402C2A712044890001D
:1004900005020402C2A690001412040275823312EF
:1004A0000489758233120489758232120489758237
:1004B0002812048975820C1204897582011204893C
:1004C000900014020402AA82AB83ACF07402B50D52
:1004D000047DC080027D808D82C002C003C00412F2
:1004E0000489900005120402D004D003D0027D00DC
:1004F0007E00ED2AFFEE3BF88C018F82888389F025
:10050000120584FF60208F82C002C003C004C005B2
:10051000C00612047ED006D005D004D003D0020D50
:10052000BD00CF0E80CC3002248D028E03C3EA942E
:1005300010EB648094805015758220C002C00312B5
:10054000047ED003D0020ABA00E30B80E022020B43
:10055000C085823185833285F033850E3490054E17
:10056000020629C008858108E50824FBF534E50862
:1005700024FBF8863108863208863390054E120631
:1005800029D0082220F71430F6148883A88220F599
:1005900007E6A88375830022E280F7E49322E02235
:1005A000AA8274B1C0E07405C0E0C023C0248A826E
:1005B00022052AE4B52A02052B22AA8274302AFADF
:1005C00024C6500A74072AFA3003034302208A82A1
:1005D0000205A0E582FAC4540FF582C0021205BAE2
:1005E000D002740F5AF5820205BAAA25AB26AC27B1
:1005F000AD28AE29753020EE2EFEED235401FF42CA
:1006000006EA2AFAEB33FBEC33FCED33FDC3EE953F
:100610002C4008EEC3952CFE430201D530D98A2523
:100620008B268C278D288E2922858223858324E49E
:10063000F52AF52BAA31AB32AC338A828B838CF04E
:10064000120584FD74012AF531E43BF5328C33ED5B
:10065000FA7003020BB9BA25028003020BB1C2077C
:10066000C208C209C20AC20BC20CC20DC20EC20429
:10067000C205C206752C00752D00752EFFAB31AC7E
:1006800032AD338B828C838DF0120584FAA3AB825A
:10069000AC838B318C328D33BA25078A821205A048
:1006A00080928A06BE3000402E8A06EE24C640277D
:1006B00074FFB52E13E52D75F00AA4FEEA24D02EA2
:1006C000F52D70BFD20880BBE52E75F00AA4FEEAB6
:1006D00024D02EF52E80ACBA2E0A74FFB52EA47548
:1006E0002E00809F8A06BE6100400E8A06EE248599
:1006F00040075302DFD2038002C203BA2002807592
:10070000BA2303020784BA2A03020789BA2B02809C
:100710005FBA2D028055BA4202805FBA43030207D6
:10072000CEBA4403020909BA4503020923BA4603B3
:1007300002091FBA4703020927BA4903020909BA85
:100740004C02803BBA4E0302092BBA4F0302091038
:10075000BA50030208A2BA53030207F2BA550302C1
:100760000915BA580302091A020955D2070206836D
:10077000D209020683D20A020683D20C020683D271
:100780000D020683D20E02068374FFB52E20300CB4
:100790000BE53414F88834862D020683E53424FEF4
:1007A000F888348606088607188E2D020683300CDA
:1007B0000BE53414F88834862E020683E53424FED3
:1007C000F888348606088607188E2E020683300CB9
:1007D0000AE53414F888348602800FE53424FEF8E4
:1007E00088348603088604188B028A821205A002C8
:1007F000095AE53424FDF8883486030886040886FF
:100800000518188B258C268D278B828C838DF012F2
:100810000BEEAB82AC838B2F74FFB52E03852F2E8E
:1008200020071DC3E52F952D5016E52DC3952FF5F7
:100830002DAB2D152DEB60087582201205A080F1DF
:100840008525828526838527F0120584FBFA602999
:10085000AB2E152EC3E464808BF063F08095F050CE
:10086000188A821205A0AB25AC26AD270BBB000170
:100870000C8B258C268D2780C720070302095AC3BD
:10088000E52F952D400302095AE52DC3952FF52D2F
:10089000AB2D152DEB700302095A7582201205A0AD
:1008A00080EEE53424FDF888348603088604088643
:1008B0000518188B258C268D27E527FB30E7047A51
:1008C000438013EB546060047A50800AEB30E604F6
:1008D0007A4980027A588A82C0021205A075823A4B
:1008E0001205A07582301205A07582781205A0D07D
:1008F00002BA4902800BBA50028006852682120590
:10090000D38525821205D38051D20B752C0A804ADB
:10091000752C088045752C0A8040752C10803BD2C0
:10092000048037D2058033D206802FE53424FDF8C9
:100930008834860308860408860518188B258C26BB
:100940008D278B828C838DF0E52A120BD5A3E52BA6
:10095000120BD580058A821205A02004062005030B
:1009600030065AE53424FCF88834860308860408E7
:1009700086050886061818188B258C268D278E2844
:100980007525DA75260075278085253585263685F7
:10099000273774012535FEE43536FFAB378E258FBA
:1009A000268B278535828536838537F0120584FBB3
:1009B000FA70030206348A821205A080CCE52C70FE
:1009C000030206347B15300C2BE53414F88834E62A
:1009D000FC3395E0FDFEFF8C258D268E278F282089
:1009E0000B5EAC257D007E007F008C258D268E273A
:1009F0008F28804C300D1FE53424FCF888348604A1
:100A00000886050886060886071818188C258D267E
:100A10008E278F28802AE53424FEF888348604083F
:100A2000860518ED3395E0FEFF8C258D268E278FE9
:100A300028200B0CAC25AD267E007F008E278F284A
:100A4000300E43E52545264527452860397408B50D
:100A50002C0C758230C0031205A0D00380287410BE
:100A6000B52C23758230C0031205A0D00330030CCF
:100A7000758278C0031205A0D003800A758258C021
:100A8000031205A0D003300B25AC25AD26AE27E51B
:100A900028FF30E717C3E49CFCE49DFDE49EFEE4E0
:100AA0009FFF8C258D268E278F288002C20B752FE5
:100AB00000D20F8B00752900C0001205EAD000207B
:100AC0000F0DE529C4FCE6FD4CF61888038002A64C
:100AD00029052FB20FE52545264527452870D688DC
:100AE00003E52D7003752D0120081A200717E52F47
:100AF00004FCC3952D500E758220C0031205A0D0B2
:100B000003152D80E9300B0E75822DC0031205A050
:100B1000D003152D8024E52F602030090E75822B1F
:100B2000C0031205A0D003152D800F300A0C75826A
:100B300020C0031205A0D003152D20071EAC2D15D3
:100B40002DC3E52F9C50273008047C3080027C2088
:100B50008C82C0031205A0D00380E2C3E52F952D3F
:100B60005009E52DC3952FF52D8003752D008B00C1
:100B7000AB2F152FEB6022B20F200F0A08E6C454EA
:100B80000FFB8B2980078603740F5BF5298529826B
:100B9000C0001205BAD00080D7200703020634AB8C
:100BA0002D152DEB70030206347582201205A080EE
:100BB000EE8A821205A0020634852A82852B8322C2
:100BC000AA82BA0A0810990280FB75990D10990241
:100BD00080FB8A992220F71030F6118883A88220A2
:100BE000F507F6A88375830022F280F7F022AA8227
:100BF000AB83ACF07D007E008A828B838CF0120583
:100C000084FFA3AA82AB83EF60070DBD00EA0E80CC
:100C1000E78D828E832200000000000000000000AB
:00000001FF
