:1000000002002E0000000000000000020214E4F5CF
:1000100009F50A750B00D200C201220000000000A1
:1000200000000000000000000000000202E87581EE
:1000300037120306E582600302009A780079007A9D
:10004000007B007C007D00EC4D601C88828983E48D
:1000500093A3A882A9838A828B83F0A3AA82AB830D
:100060001CBCFFE31D80E07582007583007C007D71
:1000700000EC4D600AE4F0A31CBCFFF51D80F27596
:1000800082007583007C007D00EC4D600AE4F0A3E3
:100090001CBCFFF51D80F212000E1200E580FE4C24
:1000A000434420342D62697420746573743A0048A7
:1000B000656C6C6F2C20576F726C642100547261F8
:1000C0006E736D697474696E6720636F6D6D616EB8
:1000D00064203A202563200A0D003C4E4F20464CF8
:1000E0004F41543E0012042A750D01D20290009F28
:1000F00075F08012045C750D02D2029000AF75F0AD
:100100008012045C2001FD2090319000321203988F
:10011000209028D201750C52AA0CE50C3395E0FB17
:10012000C002C00374BDC0E07400C0E07480C0E0D1
:100130001204F9E58124FBF581D28C2091319000E5
:1001400032120398209128D201750C4CAA0CE50CB0
:100150003395E0FBC002C00374BDC0E07400C0E092
:100160007480C0E01204F9E58124FBF581D28C2073
:100170009231900032120398209228D201750C53CC
:10018000AA0CE50C3395E0FBC002C00374BDC0E0CF
:100190007400C0E07480C0E01204F9E58124FBF52E
:1001A00081D28C209331900032120398209328D270
:1001B00001750C47AA0CE50C3395E0FBC002C003A7
:1001C00074BDC0E07400C0E07480C0E01204F9E5C2
:1001D0008124FBF581D28C3094030201049000321B
:1001E000120398309403020104D201750C42AA0C48
:1001F000E50C3395E0FBC002C00374BDC0E07400A1
:10020000C0E07480C0E01204F9E58124FBF581D2DE
:100210008C020104C0E0C082C083C002C0D075D08F
:1002200000C0BF75BF00758CA2758A407401250996
:10023000F509E4350AF50A740AB50906E4B50A02B7
:1002400080030202DBE4F509F50AE50BFA24F65017
:10025000030202C7EA2A2A90025B730202790202B1
:100260007D02028602028F0202980202A10202AA05
:100270000202B30202BC0202C5C200804A850CE041
:10028000A2E092008041850CE0A2E19200803885D6
:100290000CE0A2E29200802F850CE0A2E3920080A5
:1002A00026850CE0A2E49200801D850CE0A2E59278
:1002B000008014850CE0A2E69200800B850CE0A281
:1002C000E792008002D2007409B50B09750B00C2D9
:1002D0008CC2018002050BA2009295D0BFD0D0D075
:1002E00002D083D082D0E032C0D075D000C0BF75BC
:1002F000BF00C2CFB2A0300006A2A092A18002C26D
:10030000A1D0BFD0D03253D9BF75FF8075EF06435F
:10031000A90343B20343A41043A53FE5A675A6FF76
:1003200075E10175E240758D30538EF4438E08857A
:100330008D8B53890F438920D28E759852C28CC2FF
:100340008D438E045389F0438901758CA2758A40D0
:10035000D2A975C800438E1075CA2475CBFA75CC26
:10036000FF75CDFFD2ADD2CAD2AF75820022AA826C
:10037000438E407592D07593FF85929485939575C1
:1003800091047B00C3EB9A500BE59130E7FB53914E
:100390007F0B80F075910022AA82AB837C007D00E8
:1003A000C3EC9AED9B502B7E00BE0400501D75825D
:1003B000FAC002C003C004C005C00612036ED00616
:1003C000D005D004D003D0020E80DE0CBC00D10DCD
:1003D00080CE22D2A675822812036EC2A622AA82DD
:1003E0008AE0A2E792A2A2E692A3A2E592A4A2E4E6
:1003F00092A5C0021203D375822812036ED0028A1E
:10040000E0A2E392A2A2E292A3A2E192A4A2E092CD
:10041000A50203D3D2A71203DE900002020398C202
:10042000A71203DE900005020398C2A690001412E2
:10043000039875823312041F75823312041F75826C
:100440003212041F75822812041F75820C12041FB9
:1004500075820112041F900014020398AA82AB83D4
:10046000ACF07402B50D047DC080027D808D82C029
:1004700002C003C00412041F900005120398D004A8
:10048000D003D0027D007E00ED2AFFEE3BF88C0108
:100490008F82888389F012051AFF60208F82C00244
:1004A000C003C004C005C006120414D006D005D095
:1004B00004D003D0020DBD00CF0E80CC3002248DBD
:1004C000028E03C3EA9410EB648094805015758209
:1004D00020C002C003120414D003D0020ABA00E301
:1004E0000B80E022020B5685823185833285F03302
:1004F000850E349004E40205BFC008858108E50834
:1005000024FBF534E50824FBF8863108863208869A
:10051000339004E41205BFD0082220F71430F614FB
:100520008883A88220F507E6A88375830022E280ED
:10053000F7E49322E022AA827447C0E07405C0E089
:10054000C023C0248A8222052AE4B52A02052B2270
:10055000AA8274302AFA24C6500A74072AFA300391
:10056000034302208A82020536E582FAC4540FF55D
:1005700082C002120550D002740F5AF58202055053
:10058000AA25AB26AC27AD28AE29753020EE2EFE6D
:10059000ED235401FF4206EA2AFAEB33FBEC33FC6D
:1005A000ED33FDC3EE952C4008EEC3952CFE4302BF
:1005B00001D530D98A258B268C278D288E29228536
:1005C0008223858324E4F52AF52BAA31AB32AC33A0
:1005D0008A828B838CF012051AFD74012AF531E4AE
:1005E0003BF5328C33EDFA7003020B4FBA250280D3
:1005F00003020B47C207C208C209C20AC20BC20CDF
:10060000C20DC20EC204C205C206752C00752D00B3
:10061000752EFFAB31AC32AD338B828C838DF012F3
:10062000051AFAA3AB82AC838B318C328D33BA2599
:10063000078A8212053680928A06BE3000402E8AD2
:1006400006EE24C6402774FFB52E13E52D75F00A7B
:10065000A4FEEA24D02EF52D70BFD20880BBE52E73
:1006600075F00AA4FEEA24D02EF52E80ACBA2E0A2C
:1006700074FFB52EA4752E00809F8A06BE610040CF
:100680000E8A06EE248540075302DFD2038002C2A1
:1006900003BA20028075BA230302071ABA2A03029A
:1006A000071FBA2B02805FBA2D028055BA42028022
:1006B0005FBA4303020764BA440302089FBA4503C2
:1006C0000208B9BA46030208B5BA47030208BDBA20
:1006D000490302089FBA4C02803BBA4E030208C18C
:1006E000BA4F030208A6BA5003020838BA530302ED
:1006F0000788BA55030208ABBA58030208B00208CB
:10070000EBD207020619D209020619D20A0206190B
:10071000D20C020619D20D020619D20E0206197465
:10072000FFB52E20300C0BE53414F88834862D02EA
:100730000619E53424FEF888348606088607188EE4
:100740002D020619300C0BE53414F88834862E027D
:100750000619E53424FEF888348606088607188EC4
:100760002E020619300C0AE53414F888348602800B
:100770000FE53424FEF888348603088604188B02BB
:100780008A821205360208F0E53424FDF8883486A2
:100790000308860408860518188B258C268D278B60
:1007A000828C838DF0120B84AB82AC838B2F74FF11
:1007B000B52E03852F2E20071DC3E52F952D50162E
:1007C000E52DC3952FF52DAB2D152DEB600875820A
:1007D0002012053680F18525828526838527F01233
:1007E000051AFBFA6029AB2E152EC3E464808BF04A
:1007F00063F08095F050188A82120536AB25AC263E
:10080000AD270BBB00010C8B258C268D2780C720C4
:1008100007030208F0C3E52F952D40030208F0E519
:100820002DC3952FF52DAB2D152DEB70030208F080
:1008300075822012053680EEE53424FDF888348672
:100840000308860408860518188B258C268D27E555
:1008500027FB30E7047A438013EB546060047A503E
:10086000800AEB30E6047A4980027A588A82C00214
:1008700012053675823A12053675823012053675C4
:100880008278120536D002BA4902800BBA50028033
:10089000068526821205698525821205698051D256
:1008A0000B752C0A804A752C088045752C0A8040EF
:1008B000752C10803BD2048037D2058033D206805D
:1008C0002FE53424FDF8883486030886040886055D
:1008D00018188B258C268D278B828C838DF0E52A2A
:1008E000120B6BA3E52B120B6B80058A8212053667
:1008F00020040620050330065AE53424FCF8883429
:1009000086030886040886050886061818188B25AD
:100910008C268D278E287525DA752600752780850B
:10092000253585263685273774012535FEE435368D
:10093000FFAB378E258F268B2785358285368385BD
:1009400037F012051AFBFA70030205CA8A821205F3
:100950003680CCE52C70030205CA7B15300C2BE5E4
:100960003414F88834E6FC3395E0FDFEFF8C258DC9
:10097000268E278F28200B5EAC257D007E007F0011
:100980008C258D268E278F28804C300D1FE5342432
:10099000FCF8883486040886050886060886071849
:1009A00018188C258D268E278F28802AE53424FE62
:1009B000F88834860408860518ED3395E0FEFF8C30
:1009C000258D268E278F28200B0CAC25AD267E008A
:1009D0007F008E278F28300E43E525452645274585
:1009E0002860397408B52C0C758230C003120536A6
:1009F000D00380287410B52C23758230C0031205F3
:100A000036D00330030C758278C003120536D0034C
:100A1000800A758258C003120536D003300B25AC0E
:100A200025AD26AE27E528FF30E717C3E49CFCE49C
:100A30009DFDE49EFEE49FFF8C258D268E278F284A
:100A40008002C20B752F00D20F8B00752900C000E9
:100A5000120580D000200F0DE529C4FCE6FD4CF600
:100A60001888038002A629052FB20FE525452645E3
:100A700027452870D68803E52D7003752D012008C1
:100A80001A200717E52F04FCC3952D500E75822000
:100A9000C003120536D003152D80E9300B0E758288
:100AA0002DC003120536D003152D8024E52F6020BC
:100AB00030090E75822BC003120536D003152D8028
:100AC0000F300A0C758220C003120536D003152D95
:100AD00020071EAC2D152DC3E52F9C502730080490
:100AE0007C3080027C208C82C003120536D00380CB
:100AF000E2C3E52F952D5009E52DC3952FF52D80E7
:100B000003752D008B00AB2F152FEB6022B20F2049
:100B10000F0A08E6C4540FFB8B2980078603740F65
:100B20005BF529852982C000120550D00080D720AE
:100B300007030205CAAB2D152DEB70030205CA751C
:100B4000822012053680EE8A821205360205CA8599
:100B50002A82852B8322AA82BA0A0810990280FB76
:100B600075990D10990280FB8A992220F71030F6B2
:100B7000118883A88220F507F6A88375830022F2E6
:100B800080F7F022AA82AB83ACF07D007E008A82DF
:100B90008B838CF012051AFFA3AA82AB83EF600748
:100BA0000DBD00EA0E80E78D828E832200000000DA
:00000001FF
